{
  "_format": "hh-sol-artifact-1",
  "contractName": "TreeToken",
  "sourceName": "contracts/TreeToken.sol",
  "abi": [
    {
      "inputs": [],
      "stateMutability": "nonpayable",
      "type": "constructor"
    },
    {
      "anonymous": false,
      "inputs": [
        {
          "indexed": true,
          "internalType": "address",
          "name": "owner",
          "type": "address"
        },
        {
          "indexed": true,
          "internalType": "address",
          "name": "approved",
          "type": "address"
        },
        {
          "indexed": true,
          "internalType": "uint256",
          "name": "tokenId",
          "type": "uint256"
        }
      ],
      "name": "Approval",
      "type": "event"
    },
    {
      "anonymous": false,
      "inputs": [
        {
          "indexed": true,
          "internalType": "address",
          "name": "owner",
          "type": "address"
        },
        {
          "indexed": true,
          "internalType": "address",
          "name": "operator",
          "type": "address"
        },
        {
          "indexed": false,
          "internalType": "bool",
          "name": "approved",
          "type": "bool"
        }
      ],
      "name": "ApprovalForAll",
      "type": "event"
    },
    {
      "anonymous": false,
      "inputs": [
        {
          "indexed": true,
          "internalType": "address",
          "name": "previousOwner",
          "type": "address"
        },
        {
          "indexed": true,
          "internalType": "address",
          "name": "newOwner",
          "type": "address"
        }
      ],
      "name": "OwnershipTransferred",
      "type": "event"
    },
    {
      "anonymous": false,
      "inputs": [
        {
          "indexed": true,
          "internalType": "address",
          "name": "from",
          "type": "address"
        },
        {
          "indexed": true,
          "internalType": "address",
          "name": "to",
          "type": "address"
        },
        {
          "indexed": true,
          "internalType": "uint256",
          "name": "tokenId",
          "type": "uint256"
        }
      ],
      "name": "Transfer",
      "type": "event"
    },
    {
      "inputs": [
        {
          "internalType": "address",
          "name": "",
          "type": "address"
        }
      ],
      "name": "_oxygensOf",
      "outputs": [
        {
          "internalType": "uint256",
          "name": "",
          "type": "uint256"
        }
      ],
      "stateMutability": "view",
      "type": "function"
    },
    {
      "inputs": [
        {
          "internalType": "string",
          "name": "name_",
          "type": "string"
        },
        {
          "internalType": "uint256",
          "name": "O2Rate_",
          "type": "uint256"
        },
        {
          "internalType": "uint256",
          "name": "price_",
          "type": "uint256"
        }
      ],
      "name": "addTreeType",
      "outputs": [],
      "stateMutability": "nonpayable",
      "type": "function"
    },
    {
      "inputs": [
        {
          "internalType": "address",
          "name": "to",
          "type": "address"
        },
        {
          "internalType": "uint256",
          "name": "tokenId",
          "type": "uint256"
        }
      ],
      "name": "approve",
      "outputs": [],
      "stateMutability": "nonpayable",
      "type": "function"
    },
    {
      "inputs": [
        {
          "internalType": "address",
          "name": "owner",
          "type": "address"
        }
      ],
      "name": "balanceOf",
      "outputs": [
        {
          "internalType": "uint256",
          "name": "",
          "type": "uint256"
        }
      ],
      "stateMutability": "view",
      "type": "function"
    },
    {
      "inputs": [],
      "name": "claimOxygens",
      "outputs": [],
      "stateMutability": "nonpayable",
      "type": "function"
    },
    {
      "inputs": [
        {
          "internalType": "uint256",
          "name": "tokenId",
          "type": "uint256"
        }
      ],
      "name": "getApproved",
      "outputs": [
        {
          "internalType": "address",
          "name": "",
          "type": "address"
        }
      ],
      "stateMutability": "view",
      "type": "function"
    },
    {
      "inputs": [
        {
          "internalType": "uint256",
          "name": "treeId_",
          "type": "uint256"
        }
      ],
      "name": "getTreeById",
      "outputs": [
        {
          "internalType": "string",
          "name": "typeName",
          "type": "string"
        },
        {
          "internalType": "string",
          "name": "region",
          "type": "string"
        },
        {
          "internalType": "uint256",
          "name": "birthDate",
          "type": "uint256"
        },
        {
          "internalType": "uint8",
          "name": "height",
          "type": "uint8"
        },
        {
          "internalType": "uint8",
          "name": "diameter",
          "type": "uint8"
        },
        {
          "internalType": "uint256",
          "name": "transferredAt",
          "type": "uint256"
        }
      ],
      "stateMutability": "view",
      "type": "function"
    },
    {
      "inputs": [
        {
          "internalType": "bytes32",
          "name": "typeId_",
          "type": "bytes32"
        }
      ],
      "name": "getTreeTypeById",
      "outputs": [
        {
          "internalType": "string",
          "name": "name",
          "type": "string"
        },
        {
          "internalType": "uint256",
          "name": "O2Rate",
          "type": "uint256"
        },
        {
          "internalType": "uint256",
          "name": "price",
          "type": "uint256"
        }
      ],
      "stateMutability": "view",
      "type": "function"
    },
    {
      "inputs": [
        {
          "internalType": "string",
          "name": "name_",
          "type": "string"
        }
      ],
      "name": "getTreeTypeByName",
      "outputs": [
        {
          "internalType": "string",
          "name": "name",
          "type": "string"
        },
        {
          "internalType": "uint256",
          "name": "O2Rate",
          "type": "uint256"
        },
        {
          "internalType": "uint256",
          "name": "price",
          "type": "uint256"
        }
      ],
      "stateMutability": "view",
      "type": "function"
    },
    {
      "inputs": [],
      "name": "getTreeTypeIds",
      "outputs": [
        {
          "internalType": "bytes32[]",
          "name": "",
          "type": "bytes32[]"
        }
      ],
      "stateMutability": "view",
      "type": "function"
    },
    {
      "inputs": [
        {
          "internalType": "address",
          "name": "owner_",
          "type": "address"
        }
      ],
      "name": "getTreesOf",
      "outputs": [
        {
          "internalType": "uint256[]",
          "name": "",
          "type": "uint256[]"
        }
      ],
      "stateMutability": "view",
      "type": "function"
    },
    {
      "inputs": [
        {
          "internalType": "address",
          "name": "owner",
          "type": "address"
        },
        {
          "internalType": "address",
          "name": "operator",
          "type": "address"
        }
      ],
      "name": "isApprovedForAll",
      "outputs": [
        {
          "internalType": "bool",
          "name": "",
          "type": "bool"
        }
      ],
      "stateMutability": "view",
      "type": "function"
    },
    {
      "inputs": [],
      "name": "name",
      "outputs": [
        {
          "internalType": "string",
          "name": "",
          "type": "string"
        }
      ],
      "stateMutability": "view",
      "type": "function"
    },
    {
      "inputs": [],
      "name": "owner",
      "outputs": [
        {
          "internalType": "address",
          "name": "",
          "type": "address"
        }
      ],
      "stateMutability": "view",
      "type": "function"
    },
    {
      "inputs": [
        {
          "internalType": "uint256",
          "name": "tokenId",
          "type": "uint256"
        }
      ],
      "name": "ownerOf",
      "outputs": [
        {
          "internalType": "address",
          "name": "",
          "type": "address"
        }
      ],
      "stateMutability": "view",
      "type": "function"
    },
    {
      "inputs": [
        {
          "internalType": "address",
          "name": "account_",
          "type": "address"
        }
      ],
      "name": "oxygensOf",
      "outputs": [
        {
          "internalType": "uint256",
          "name": "",
          "type": "uint256"
        }
      ],
      "stateMutability": "view",
      "type": "function"
    },
    {
      "inputs": [
        {
          "internalType": "string",
          "name": "typeName_",
          "type": "string"
        },
        {
          "internalType": "string",
          "name": "region_",
          "type": "string"
        },
        {
          "internalType": "uint256",
          "name": "birthDate_",
          "type": "uint256"
        },
        {
          "internalType": "uint8",
          "name": "height_",
          "type": "uint8"
        },
        {
          "internalType": "uint8",
          "name": "diameter_",
          "type": "uint8"
        }
      ],
      "name": "purchaseTree",
      "outputs": [],
      "stateMutability": "payable",
      "type": "function"
    },
    {
      "inputs": [
        {
          "internalType": "string",
          "name": "name_",
          "type": "string"
        }
      ],
      "name": "removeTreeTypeByName",
      "outputs": [],
      "stateMutability": "nonpayable",
      "type": "function"
    },
    {
      "inputs": [],
      "name": "renounceOwnership",
      "outputs": [],
      "stateMutability": "nonpayable",
      "type": "function"
    },
    {
      "inputs": [
        {
          "internalType": "address",
          "name": "from",
          "type": "address"
        },
        {
          "internalType": "address",
          "name": "to",
          "type": "address"
        },
        {
          "internalType": "uint256",
          "name": "tokenId",
          "type": "uint256"
        }
      ],
      "name": "safeTransferFrom",
      "outputs": [],
      "stateMutability": "nonpayable",
      "type": "function"
    },
    {
      "inputs": [
        {
          "internalType": "address",
          "name": "from",
          "type": "address"
        },
        {
          "internalType": "address",
          "name": "to",
          "type": "address"
        },
        {
          "internalType": "uint256",
          "name": "tokenId",
          "type": "uint256"
        },
        {
          "internalType": "bytes",
          "name": "_data",
          "type": "bytes"
        }
      ],
      "name": "safeTransferFrom",
      "outputs": [],
      "stateMutability": "nonpayable",
      "type": "function"
    },
    {
      "inputs": [
        {
          "internalType": "address",
          "name": "operator",
          "type": "address"
        },
        {
          "internalType": "bool",
          "name": "approved",
          "type": "bool"
        }
      ],
      "name": "setApprovalForAll",
      "outputs": [],
      "stateMutability": "nonpayable",
      "type": "function"
    },
    {
      "inputs": [
        {
          "internalType": "bytes4",
          "name": "interfaceId",
          "type": "bytes4"
        }
      ],
      "name": "supportsInterface",
      "outputs": [
        {
          "internalType": "bool",
          "name": "",
          "type": "bool"
        }
      ],
      "stateMutability": "view",
      "type": "function"
    },
    {
      "inputs": [],
      "name": "symbol",
      "outputs": [
        {
          "internalType": "string",
          "name": "",
          "type": "string"
        }
      ],
      "stateMutability": "view",
      "type": "function"
    },
    {
      "inputs": [
        {
          "internalType": "uint256",
          "name": "tokenId",
          "type": "uint256"
        }
      ],
      "name": "tokenURI",
      "outputs": [
        {
          "internalType": "string",
          "name": "",
          "type": "string"
        }
      ],
      "stateMutability": "view",
      "type": "function"
    },
    {
      "inputs": [],
      "name": "totalOxygens",
      "outputs": [
        {
          "internalType": "uint256",
          "name": "",
          "type": "uint256"
        }
      ],
      "stateMutability": "view",
      "type": "function"
    },
    {
      "inputs": [
        {
          "internalType": "address",
          "name": "from",
          "type": "address"
        },
        {
          "internalType": "address",
          "name": "to",
          "type": "address"
        },
        {
          "internalType": "uint256",
          "name": "tokenId",
          "type": "uint256"
        }
      ],
      "name": "transferFrom",
      "outputs": [],
      "stateMutability": "nonpayable",
      "type": "function"
    },
    {
      "inputs": [
        {
          "internalType": "address",
          "name": "newOwner",
          "type": "address"
        }
      ],
      "name": "transferOwnership",
      "outputs": [],
      "stateMutability": "nonpayable",
      "type": "function"
    }
  ],
  "bytecode": "0x60806040523480156200001157600080fd5b506040518060400160405280600b81526020017f655472656520546f6b656e0000000000000000000000000000000000000000008152506040518060400160405280600381526020017f54524500000000000000000000000000000000000000000000000000000000008152506200009e62000092620000d860201b60201c565b620000e060201b60201c565b8160099080519060200190620000b6929190620001a6565b5080600a9080519060200190620000cf929190620001a6565b505050620002bb565b600033905090565b6000600260009054906101000a900473ffffffffffffffffffffffffffffffffffffffff16905081600260006101000a81548173ffffffffffffffffffffffffffffffffffffffff021916908373ffffffffffffffffffffffffffffffffffffffff1602179055508173ffffffffffffffffffffffffffffffffffffffff168173ffffffffffffffffffffffffffffffffffffffff167f8be0079c531659141344cd1fd0a4f28419497f9722a3daafe3b4186f6b6457e060405160405180910390a35050565b828054620001b49062000256565b90600052602060002090601f016020900481019282620001d8576000855562000224565b82601f10620001f357805160ff191683800117855562000224565b8280016001018555821562000224579182015b828111156200022357825182559160200191906001019062000206565b5b50905062000233919062000237565b5090565b5b808211156200025257600081600090555060010162000238565b5090565b600060028204905060018216806200026f57607f821691505b602082108114156200028657620002856200028c565b5b50919050565b7f4e487b7100000000000000000000000000000000000000000000000000000000600052602260045260246000fd5b61477e80620002cb6000396000f3fe6080604052600436106101b75760003560e01c8063715018a6116100ec578063b47e43641161008a578063c87b56dd11610064578063c87b56dd1461063c578063e985e9c514610679578063eafa70c6146106b6578063f2fde38b146106e1576101b7565b8063b47e4364146105a8578063b88d4fde146105ea578063bff71a2c14610613576101b7565b806395d89b41116100c657806395d89b41146104d8578063a22cb46514610503578063a5da70211461052c578063b04637a61461056b576101b7565b8063715018a614610457578063892e5dad1461046e5780638da5cb5b146104ad576101b7565b806335dcbcde116101595780634965090511610133578063496509051461039d5780636352211e146103c657806365e7e3741461040357806370a082311461041a576101b7565b806335dcbcde146102fa57806342842e0e1461033757806343e4f3d014610360576101b7565b8063081812fc11610195578063081812fc14610240578063095ea7b31461027d5780630b41015b146102a657806323b872dd146102d1576101b7565b806301ffc9a7146101bc57806306fdde03146101f95780630808e78f14610224575b600080fd5b3480156101c857600080fd5b506101e360048036038101906101de9190613241565b61070a565b6040516101f091906139e1565b60405180910390f35b34801561020557600080fd5b5061020e6107ec565b60405161021b91906139fc565b60405180910390f35b61023e600480360381019061023991906132d8565b61087e565b005b34801561024c57600080fd5b5061026760048036038101906102629190613435565b610a27565b6040516102749190613936565b60405180910390f35b34801561028957600080fd5b506102a4600480360381019061029f91906131dc565b610aac565b005b3480156102b257600080fd5b506102bb610bc4565b6040516102c89190613d0b565b60405180910390f35b3480156102dd57600080fd5b506102f860048036038101906102f391906130d6565b610bce565b005b34801561030657600080fd5b50610321600480360381019061031c9190613071565b610c2e565b60405161032e9190613d0b565b60405180910390f35b34801561034357600080fd5b5061035e600480360381019061035991906130d6565b610c46565b005b34801561036c57600080fd5b5061038760048036038101906103829190613071565b610c66565b6040516103949190613d0b565b60405180910390f35b3480156103a957600080fd5b506103c460048036038101906103bf9190613293565b610cc7565b005b3480156103d257600080fd5b506103ed60048036038101906103e89190613435565b610d8a565b6040516103fa9190613936565b60405180910390f35b34801561040f57600080fd5b50610418610e3c565b005b34801561042657600080fd5b50610441600480360381019061043c9190613071565b610e47565b60405161044e9190613d0b565b60405180910390f35b34801561046357600080fd5b5061046c610eff565b005b34801561047a57600080fd5b50610495600480360381019061049091906133f4565b610f87565b6040516104a493929190613a8d565b60405180910390f35b3480156104b957600080fd5b506104c2610fce565b6040516104cf9190613936565b60405180910390f35b3480156104e457600080fd5b506104ed610ff8565b6040516104fa91906139fc565b60405180910390f35b34801561050f57600080fd5b5061052a600480360381019061052591906131a0565b61108a565b005b34801561053857600080fd5b50610553600480360381019061054e9190613218565b61120b565b60405161056293929190613a8d565b60405180910390f35b34801561057757600080fd5b50610592600480360381019061058d9190613071565b611348565b60405161059f91906139bf565b60405180910390f35b3480156105b457600080fd5b506105cf60048036038101906105ca9190613435565b611398565b6040516105e196959493929190613a1e565b60405180910390f35b3480156105f657600080fd5b50610611600480360381019061060c9190613125565b61159d565b005b34801561061f57600080fd5b5061063a60048036038101906106359190613388565b6115ff565b005b34801561064857600080fd5b50610663600480360381019061065e9190613435565b611783565b60405161067091906139fc565b60405180910390f35b34801561068557600080fd5b506106a0600480360381019061069b919061309a565b61182a565b6040516106ad91906139e1565b60405180910390f35b3480156106c257600080fd5b506106cb6118be565b6040516106d8919061399d565b60405180910390f35b3480156106ed57600080fd5b5061070860048036038101906107039190613071565b6118cf565b005b60007f80ac58cd000000000000000000000000000000000000000000000000000000007bffffffffffffffffffffffffffffffffffffffffffffffffffffffff1916827bffffffffffffffffffffffffffffffffffffffffffffffffffffffff191614806107d557507f5b5e139f000000000000000000000000000000000000000000000000000000007bffffffffffffffffffffffffffffffffffffffffffffffffffffffff1916827bffffffffffffffffffffffffffffffffffffffffffffffffffffffff1916145b806107e557506107e4826119c7565b5b9050919050565b6060600980546107fb90614044565b80601f016020809104026020016040519081016040528092919081815260200182805461082790614044565b80156108745780601f1061084957610100808354040283529160200191610874565b820191906000526020600020905b81548152906001019060200180831161085757829003601f168201915b5050505050905090565b60006108cd88888080601f016020809104026020016040519081016040528093929190818152602001838380828437600081840152601f19601f82011690508083019250505050505050610f87565b9250505080341015610914576040517f08c379a000000000000000000000000000000000000000000000000000000000815260040161090b90613ccb565b60405180910390fd5b61091d33611a31565b60006109b5338a8a8080601f016020809104026020016040519081016040528093929190818152602001838380828437600081840152601f19601f8201169050808301925050505050505089898080601f016020809104026020016040519081016040528093929190818152602001838380828437600081840152601f19601f82011690508083019250505050505050888888611af5565b90506109c13382611c5c565b81341115610a1c573373ffffffffffffffffffffffffffffffffffffffff166108fc83346109ef9190613f43565b9081150290604051600060405180830381858888f19350505050158015610a1a573d6000803e3d6000fd5b505b505050505050505050565b6000610a3282611e2a565b610a71576040517f08c379a0000000000000000000000000000000000000000000000000000000008152600401610a6890613c2b565b60405180910390fd5b600d600083815260200190815260200160002060009054906101000a900473ffffffffffffffffffffffffffffffffffffffff169050919050565b6000610ab782610d8a565b90508073ffffffffffffffffffffffffffffffffffffffff168373ffffffffffffffffffffffffffffffffffffffff161415610b28576040517f08c379a0000000000000000000000000000000000000000000000000000000008152600401610b1f90613cab565b60405180910390fd5b8073ffffffffffffffffffffffffffffffffffffffff16610b47611e96565b73ffffffffffffffffffffffffffffffffffffffff161480610b765750610b7581610b70611e96565b61182a565b5b610bb5576040517f08c379a0000000000000000000000000000000000000000000000000000000008152600401610bac90613bab565b60405180910390fd5b610bbf8383611e9e565b505050565b6000600654905090565b610bdf610bd9611e96565b82611f57565b610c1e576040517f08c379a0000000000000000000000000000000000000000000000000000000008152600401610c1590613ceb565b60405180910390fd5b610c29838383612035565b505050565b60076020528060005260406000206000915090505481565b610c618383836040518060200160405280600081525061159d565b505050565b600080610c7283612062565b905080600760008573ffffffffffffffffffffffffffffffffffffffff1673ffffffffffffffffffffffffffffffffffffffff16815260200190815260200160002054610cbf9190613e62565b915050919050565b610ccf611e96565b73ffffffffffffffffffffffffffffffffffffffff16610ced610fce565b73ffffffffffffffffffffffffffffffffffffffff1614610d43576040517f08c379a0000000000000000000000000000000000000000000000000000000008152600401610d3a90613c4b565b60405180910390fd5b60008282604051602001610d589291906138e2565b604051602081830303815290604052805190602001209050610d8481600461236390919063ffffffff16565b50505050565b600080600b600084815260200190815260200160002060009054906101000a900473ffffffffffffffffffffffffffffffffffffffff169050600073ffffffffffffffffffffffffffffffffffffffff168173ffffffffffffffffffffffffffffffffffffffff161415610e33576040517f08c379a0000000000000000000000000000000000000000000000000000000008152600401610e2a90613beb565b60405180910390fd5b80915050919050565b610e4533611a31565b565b60008073ffffffffffffffffffffffffffffffffffffffff168273ffffffffffffffffffffffffffffffffffffffff161415610eb8576040517f08c379a0000000000000000000000000000000000000000000000000000000008152600401610eaf90613bcb565b60405180910390fd5b600c60008373ffffffffffffffffffffffffffffffffffffffff1673ffffffffffffffffffffffffffffffffffffffff168152602001908152602001600020549050919050565b610f07611e96565b73ffffffffffffffffffffffffffffffffffffffff16610f25610fce565b73ffffffffffffffffffffffffffffffffffffffff1614610f7b576040517f08c379a0000000000000000000000000000000000000000000000000000000008152600401610f7290613c4b565b60405180910390fd5b610f85600061237a565b565b6060600080600084604051602001610f9f91906138fb565b604051602081830303815290604052805190602001209050610fc08161120b565b935093509350509193909250565b6000600260009054906101000a900473ffffffffffffffffffffffffffffffffffffffff16905090565b6060600a805461100790614044565b80601f016020809104026020016040519081016040528092919081815260200182805461103390614044565b80156110805780601f1061105557610100808354040283529160200191611080565b820191906000526020600020905b81548152906001019060200180831161106357829003601f168201915b5050505050905090565b611092611e96565b73ffffffffffffffffffffffffffffffffffffffff168273ffffffffffffffffffffffffffffffffffffffff161415611100576040517f08c379a00000000000000000000000000000000000000000000000000000000081526004016110f790613b6b565b60405180910390fd5b80600e600061110d611e96565b73ffffffffffffffffffffffffffffffffffffffff1673ffffffffffffffffffffffffffffffffffffffff16815260200190815260200160002060008473ffffffffffffffffffffffffffffffffffffffff1673ffffffffffffffffffffffffffffffffffffffff16815260200190815260200160002060006101000a81548160ff0219169083151502179055508173ffffffffffffffffffffffffffffffffffffffff166111ba611e96565b73ffffffffffffffffffffffffffffffffffffffff167f17307eab39ab6107e8899845ad3d59bd9653f200f220920489ca2b5937696c31836040516111ff91906139e1565b60405180910390a35050565b606060008061122484600461244090919063ffffffff16565b611263576040517f08c379a000000000000000000000000000000000000000000000000000000000815260040161125a90613b2b565b60405180910390fd5b60006003600086815260200190815260200160002060405180606001604052908160008201805461129390614044565b80601f01602080910402602001604051908101604052809291908181526020018280546112bf90614044565b801561130c5780601f106112e15761010080835404028352916020019161130c565b820191906000526020600020905b8154815290600101906020018083116112ef57829003601f168201915b50505050508152602001600182015481526020016002820154815250509050806000015193508060200151925080604001519150509193909250565b6060611391600160008473ffffffffffffffffffffffffffffffffffffffff1673ffffffffffffffffffffffffffffffffffffffff168152602001908152602001600020612457565b9050919050565b60608060008060008060008088815481106113dc577f4e487b7100000000000000000000000000000000000000000000000000000000600052603260045260246000fd5b90600052602060002090600502016040518060c001604052908160008201805461140590614044565b80601f016020809104026020016040519081016040528092919081815260200182805461143190614044565b801561147e5780601f106114535761010080835404028352916020019161147e565b820191906000526020600020905b81548152906001019060200180831161146157829003601f168201915b5050505050815260200160018201805461149790614044565b80601f01602080910402602001604051908101604052809291908181526020018280546114c390614044565b80156115105780601f106114e557610100808354040283529160200191611510565b820191906000526020600020905b8154815290600101906020018083116114f357829003601f168201915b50505050508152602001600282015481526020016003820160009054906101000a900460ff1660ff1660ff1681526020016003820160019054906101000a900460ff1660ff1660ff168152602001600482015481525050905080600001519650806020015195508060400151945080606001519350806080015192508060a0015191505091939550919395565b6115ae6115a8611e96565b83611f57565b6115ed576040517f08c379a00000000000000000000000000000000000000000000000000000000081526004016115e490613ceb565b60405180910390fd5b6115f984848484612478565b50505050565b611607611e96565b73ffffffffffffffffffffffffffffffffffffffff16611625610fce565b73ffffffffffffffffffffffffffffffffffffffff161461167b576040517f08c379a000000000000000000000000000000000000000000000000000000000815260040161167290613c4b565b60405180910390fd5b600084846040516020016116909291906138e2565b6040516020818303038152906040528051906020012090506116bc81600461244090919063ffffffff16565b61177c57604051806060016040528086868080601f016020809104026020016040519081016040528093929190818152602001838380828437600081840152601f19601f8201169050808301925050505050505081526020018481526020018381525060036000838152602001908152602001600020600082015181600001908051906020019061174e929190612e21565b50602082015181600101556040820151816002015590505061177a8160046124d490919063ffffffff16565b505b5050505050565b606061178e82611e2a565b6117cd576040517f08c379a00000000000000000000000000000000000000000000000000000000081526004016117c490613c8b565b60405180910390fd5b60006117d76124eb565b905060008151116117f75760405180602001604052806000815250611822565b8061180184612502565b604051602001611812929190613912565b6040516020818303038152906040525b915050919050565b6000600e60008473ffffffffffffffffffffffffffffffffffffffff1673ffffffffffffffffffffffffffffffffffffffff16815260200190815260200160002060008373ffffffffffffffffffffffffffffffffffffffff1673ffffffffffffffffffffffffffffffffffffffff16815260200190815260200160002060009054906101000a900460ff16905092915050565b60606118ca60046126af565b905090565b6118d7611e96565b73ffffffffffffffffffffffffffffffffffffffff166118f5610fce565b73ffffffffffffffffffffffffffffffffffffffff161461194b576040517f08c379a000000000000000000000000000000000000000000000000000000000815260040161194290613c4b565b60405180910390fd5b600073ffffffffffffffffffffffffffffffffffffffff168173ffffffffffffffffffffffffffffffffffffffff1614156119bb576040517f08c379a00000000000000000000000000000000000000000000000000000000081526004016119b290613aeb565b60405180910390fd5b6119c48161237a565b50565b60007f01ffc9a7000000000000000000000000000000000000000000000000000000007bffffffffffffffffffffffffffffffffffffffffffffffffffffffff1916827bffffffffffffffffffffffffffffffffffffffffffffffffffffffff1916149050919050565b6000611a3c82612062565b905080600760008473ffffffffffffffffffffffffffffffffffffffff1673ffffffffffffffffffffffffffffffffffffffff1681526020019081526020016000206000828254611a8d9190613e62565b925050819055508060066000828254611aa69190613e62565b9250508190555042600860008473ffffffffffffffffffffffffffffffffffffffff1673ffffffffffffffffffffffffffffffffffffffff168152602001908152602001600020819055505050565b6000806040518060c001604052808881526020018781526020018681526020018560ff1681526020018460ff16815260200142815250905060008190806001815401808255809150506001900390600052602060002090600502016000909190919091506000820151816000019080519060200190611b75929190612e21565b506020820151816001019080519060200190611b92929190612e21565b506040820151816002015560608201518160030160006101000a81548160ff021916908360ff16021790555060808201518160030160016101000a81548160ff021916908360ff16021790555060a0820151816004015550506001600080549050611bfd9190613f43565b9150611c5082600160008b73ffffffffffffffffffffffffffffffffffffffff1673ffffffffffffffffffffffffffffffffffffffff1681526020019081526020016000206126c490919063ffffffff16565b50509695505050505050565b600073ffffffffffffffffffffffffffffffffffffffff168273ffffffffffffffffffffffffffffffffffffffff161415611ccc576040517f08c379a0000000000000000000000000000000000000000000000000000000008152600401611cc390613c0b565b60405180910390fd5b611cd581611e2a565b15611d15576040517f08c379a0000000000000000000000000000000000000000000000000000000008152600401611d0c90613b0b565b60405180910390fd5b611d21600083836126de565b6001600c60008473ffffffffffffffffffffffffffffffffffffffff1673ffffffffffffffffffffffffffffffffffffffff1681526020019081526020016000206000828254611d719190613e62565b9250508190555081600b600083815260200190815260200160002060006101000a81548173ffffffffffffffffffffffffffffffffffffffff021916908373ffffffffffffffffffffffffffffffffffffffff160217905550808273ffffffffffffffffffffffffffffffffffffffff16600073ffffffffffffffffffffffffffffffffffffffff167fddf252ad1be2c89b69c2b068fc378daa952ba7f163c4a11628f55a4df523b3ef60405160405180910390a45050565b60008073ffffffffffffffffffffffffffffffffffffffff16600b600084815260200190815260200160002060009054906101000a900473ffffffffffffffffffffffffffffffffffffffff1673ffffffffffffffffffffffffffffffffffffffff1614159050919050565b600033905090565b81600d600083815260200190815260200160002060006101000a81548173ffffffffffffffffffffffffffffffffffffffff021916908373ffffffffffffffffffffffffffffffffffffffff160217905550808273ffffffffffffffffffffffffffffffffffffffff16611f1183610d8a565b73ffffffffffffffffffffffffffffffffffffffff167f8c5be1e5ebec7d5bd14f71427d1e84f3dd0314c0f7b2291e5b200ac8c7c3b92560405160405180910390a45050565b6000611f6282611e2a565b611fa1576040517f08c379a0000000000000000000000000000000000000000000000000000000008152600401611f9890613b8b565b60405180910390fd5b6000611fac83610d8a565b90508073ffffffffffffffffffffffffffffffffffffffff168473ffffffffffffffffffffffffffffffffffffffff16148061201b57508373ffffffffffffffffffffffffffffffffffffffff1661200384610a27565b73ffffffffffffffffffffffffffffffffffffffff16145b8061202c575061202b818561182a565b5b91505092915050565b61203e83611a31565b61204782611a31565b6120528383836126e3565b61205d83838361278c565b505050565b6000806120ac600160008573ffffffffffffffffffffffffffffffffffffffff1673ffffffffffffffffffffffffffffffffffffffff168152602001908152602001600020612457565b90506000600860008573ffffffffffffffffffffffffffffffffffffffff1673ffffffffffffffffffffffffffffffffffffffff16815260200190815260200160002054426120fb9190613f43565b9050600080600090505b83518110156123575760008085838151811061214a577f4e487b7100000000000000000000000000000000000000000000000000000000600052603260045260246000fd5b602002602001015181548110612189577f4e487b7100000000000000000000000000000000000000000000000000000000600052603260045260246000fd5b90600052602060002090600502016040518060c00160405290816000820180546121b290614044565b80601f01602080910402602001604051908101604052809291908181526020018280546121de90614044565b801561222b5780601f106122005761010080835404028352916020019161222b565b820191906000526020600020905b81548152906001019060200180831161220e57829003601f168201915b5050505050815260200160018201805461224490614044565b80601f016020809104026020016040519081016040528092919081815260200182805461227090614044565b80156122bd5780601f10612292576101008083540402835291602001916122bd565b820191906000526020600020905b8154815290600101906020018083116122a057829003601f168201915b50505050508152602001600282015481526020016003820160009054906101000a900460ff1660ff1660ff1681526020016003820160019054906101000a900460ff1660ff1660ff168152602001600482015481525050905060006123258260000151610f87565b5091505080856123359190613ee9565b846123409190613e62565b93505050808061234f906140a7565b915050612105565b50809350505050919050565b600061237283600001836129e8565b905092915050565b6000600260009054906101000a900473ffffffffffffffffffffffffffffffffffffffff16905081600260006101000a81548173ffffffffffffffffffffffffffffffffffffffff021916908373ffffffffffffffffffffffffffffffffffffffff1602179055508173ffffffffffffffffffffffffffffffffffffffff168173ffffffffffffffffffffffffffffffffffffffff167f8be0079c531659141344cd1fd0a4f28419497f9722a3daafe3b4186f6b6457e060405160405180910390a35050565b600061244f8360000183612b6e565b905092915050565b6060600061246783600001612b91565b905060608190508092505050919050565b612483848484612035565b61248f84848484612bed565b6124ce576040517f08c379a00000000000000000000000000000000000000000000000000000000081526004016124c590613acb565b60405180910390fd5b50505050565b60006124e38360000183612d84565b905092915050565b606060405180602001604052806000815250905090565b6060600082141561254a576040518060400160405280600181526020017f300000000000000000000000000000000000000000000000000000000000000081525090506126aa565b600082905060005b6000821461257c578080612565906140a7565b915050600a826125759190613eb8565b9150612552565b60008167ffffffffffffffff8111156125be577f4e487b7100000000000000000000000000000000000000000000000000000000600052604160045260246000fd5b6040519080825280601f01601f1916602001820160405280156125f05781602001600182028036833780820191505090505b5090505b600085146126a3576001826126099190613f43565b9150600a8561261891906140f0565b60306126249190613e62565b60f81b818381518110612660577f4e487b7100000000000000000000000000000000000000000000000000000000600052603260045260246000fd5b60200101907effffffffffffffffffffffffffffffffffffffffffffffffffffffffffffff1916908160001a905350600a8561269c9190613eb8565b94506125f4565b8093505050505b919050565b60606126bd82600001612b91565b9050919050565b60006126d6836000018360001b612d84565b905092915050565b505050565b61273481600160008673ffffffffffffffffffffffffffffffffffffffff1673ffffffffffffffffffffffffffffffffffffffff168152602001908152602001600020612df490919063ffffffff16565b5061278681600160008573ffffffffffffffffffffffffffffffffffffffff1673ffffffffffffffffffffffffffffffffffffffff1681526020019081526020016000206126c490919063ffffffff16565b50505050565b8273ffffffffffffffffffffffffffffffffffffffff166127ac82610d8a565b73ffffffffffffffffffffffffffffffffffffffff1614612802576040517f08c379a00000000000000000000000000000000000000000000000000000000081526004016127f990613c6b565b60405180910390fd5b600073ffffffffffffffffffffffffffffffffffffffff168273ffffffffffffffffffffffffffffffffffffffff161415612872576040517f08c379a000000000000000000000000000000000000000000000000000000000815260040161286990613b4b565b60405180910390fd5b61287d8383836126de565b612888600082611e9e565b6001600c60008573ffffffffffffffffffffffffffffffffffffffff1673ffffffffffffffffffffffffffffffffffffffff16815260200190815260200160002060008282546128d89190613f43565b925050819055506001600c60008473ffffffffffffffffffffffffffffffffffffffff1673ffffffffffffffffffffffffffffffffffffffff168152602001908152602001600020600082825461292f9190613e62565b9250508190555081600b600083815260200190815260200160002060006101000a81548173ffffffffffffffffffffffffffffffffffffffff021916908373ffffffffffffffffffffffffffffffffffffffff160217905550808273ffffffffffffffffffffffffffffffffffffffff168473ffffffffffffffffffffffffffffffffffffffff167fddf252ad1be2c89b69c2b068fc378daa952ba7f163c4a11628f55a4df523b3ef60405160405180910390a4505050565b60008083600101600084815260200190815260200160002054905060008114612b62576000600182612a1a9190613f43565b9050600060018660000180549050612a329190613f43565b9050818114612aed576000866000018281548110612a79577f4e487b7100000000000000000000000000000000000000000000000000000000600052603260045260246000fd5b9060005260206000200154905080876000018481548110612ac3577f4e487b7100000000000000000000000000000000000000000000000000000000600052603260045260246000fd5b90600052602060002001819055508387600101600083815260200190815260200160002081905550505b85600001805480612b27577f4e487b7100000000000000000000000000000000000000000000000000000000600052603160045260246000fd5b600190038181906000526020600020016000905590558560010160008681526020019081526020016000206000905560019350505050612b68565b60009150505b92915050565b600080836001016000848152602001908152602001600020541415905092915050565b606081600001805480602002602001604051908101604052809291908181526020018280548015612be157602002820191906000526020600020905b815481526020019060010190808311612bcd575b50505050509050919050565b6000612c0e8473ffffffffffffffffffffffffffffffffffffffff16612e0e565b15612d77578373ffffffffffffffffffffffffffffffffffffffff1663150b7a02612c37611e96565b8786866040518563ffffffff1660e01b8152600401612c599493929190613951565b602060405180830381600087803b158015612c7357600080fd5b505af1925050508015612ca457506040513d601f19601f82011682018060405250810190612ca1919061326a565b60015b612d27573d8060008114612cd4576040519150601f19603f3d011682016040523d82523d6000602084013e612cd9565b606091505b50600081511415612d1f576040517f08c379a0000000000000000000000000000000000000000000000000000000008152600401612d1690613acb565b60405180910390fd5b805181602001fd5b63150b7a0260e01b7bffffffffffffffffffffffffffffffffffffffffffffffffffffffff1916817bffffffffffffffffffffffffffffffffffffffffffffffffffffffff191614915050612d7c565b600190505b949350505050565b6000612d908383612b6e565b612de9578260000182908060018154018082558091505060019003906000526020600020016000909190919091505582600001805490508360010160008481526020019081526020016000208190555060019050612dee565b600090505b92915050565b6000612e06836000018360001b6129e8565b905092915050565b600080823b905060008111915050919050565b828054612e2d90614044565b90600052602060002090601f016020900481019282612e4f5760008555612e96565b82601f10612e6857805160ff1916838001178555612e96565b82800160010185558215612e96579182015b82811115612e95578251825591602001919060010190612e7a565b5b509050612ea39190612ea7565b5090565b5b80821115612ec0576000816000905550600101612ea8565b5090565b6000612ed7612ed284613d4b565b613d26565b905082815260208101848484011115612eef57600080fd5b612efa848285614002565b509392505050565b6000612f15612f1084613d7c565b613d26565b905082815260208101848484011115612f2d57600080fd5b612f38848285614002565b509392505050565b600081359050612f4f816146be565b92915050565b600081359050612f64816146d5565b92915050565b600081359050612f79816146ec565b92915050565b600081359050612f8e81614703565b92915050565b600081519050612fa381614703565b92915050565b600082601f830112612fba57600080fd5b8135612fca848260208601612ec4565b91505092915050565b60008083601f840112612fe557600080fd5b8235905067ffffffffffffffff811115612ffe57600080fd5b60208301915083600182028301111561301657600080fd5b9250929050565b600082601f83011261302e57600080fd5b813561303e848260208601612f02565b91505092915050565b6000813590506130568161471a565b92915050565b60008135905061306b81614731565b92915050565b60006020828403121561308357600080fd5b600061309184828501612f40565b91505092915050565b600080604083850312156130ad57600080fd5b60006130bb85828601612f40565b92505060206130cc85828601612f40565b9150509250929050565b6000806000606084860312156130eb57600080fd5b60006130f986828701612f40565b935050602061310a86828701612f40565b925050604061311b86828701613047565b9150509250925092565b6000806000806080858703121561313b57600080fd5b600061314987828801612f40565b945050602061315a87828801612f40565b935050604061316b87828801613047565b925050606085013567ffffffffffffffff81111561318857600080fd5b61319487828801612fa9565b91505092959194509250565b600080604083850312156131b357600080fd5b60006131c185828601612f40565b92505060206131d285828601612f55565b9150509250929050565b600080604083850312156131ef57600080fd5b60006131fd85828601612f40565b925050602061320e85828601613047565b9150509250929050565b60006020828403121561322a57600080fd5b600061323884828501612f6a565b91505092915050565b60006020828403121561325357600080fd5b600061326184828501612f7f565b91505092915050565b60006020828403121561327c57600080fd5b600061328a84828501612f94565b91505092915050565b600080602083850312156132a657600080fd5b600083013567ffffffffffffffff8111156132c057600080fd5b6132cc85828601612fd3565b92509250509250929050565b600080600080600080600060a0888a0312156132f357600080fd5b600088013567ffffffffffffffff81111561330d57600080fd5b6133198a828b01612fd3565b9750975050602088013567ffffffffffffffff81111561333857600080fd5b6133448a828b01612fd3565b955095505060406133578a828b01613047565b93505060606133688a828b0161305c565b92505060806133798a828b0161305c565b91505092959891949750929550565b6000806000806060858703121561339e57600080fd5b600085013567ffffffffffffffff8111156133b857600080fd5b6133c487828801612fd3565b945094505060206133d787828801613047565b92505060406133e887828801613047565b91505092959194509250565b60006020828403121561340657600080fd5b600082013567ffffffffffffffff81111561342057600080fd5b61342c8482850161301d565b91505092915050565b60006020828403121561344757600080fd5b600061345584828501613047565b91505092915050565b600061346a8383613568565b60208301905092915050565b600061348283836138b5565b60208301905092915050565b61349781613f77565b82525050565b60006134a882613dcd565b6134b28185613e13565b93506134bd83613dad565b8060005b838110156134ee5781516134d5888261345e565b97506134e083613df9565b9250506001810190506134c1565b5085935050505092915050565b600061350682613dd8565b6135108185613e24565b935061351b83613dbd565b8060005b8381101561354c5781516135338882613476565b975061353e83613e06565b92505060018101905061351f565b5085935050505092915050565b61356281613f89565b82525050565b61357181613f95565b82525050565b600061358282613de3565b61358c8185613e35565b935061359c818560208601614011565b6135a5816141dd565b840191505092915050565b60006135bc8385613e57565b93506135c9838584614002565b82840190509392505050565b60006135e082613dee565b6135ea8185613e46565b93506135fa818560208601614011565b613603816141dd565b840191505092915050565b600061361982613dee565b6136238185613e57565b9350613633818560208601614011565b80840191505092915050565b600061364c603283613e46565b9150613657826141ee565b604082019050919050565b600061366f602683613e46565b915061367a8261423d565b604082019050919050565b6000613692601c83613e46565b915061369d8261428c565b602082019050919050565b60006136b5601d83613e46565b91506136c0826142b5565b602082019050919050565b60006136d8602483613e46565b91506136e3826142de565b604082019050919050565b60006136fb601983613e46565b91506137068261432d565b602082019050919050565b600061371e602c83613e46565b915061372982614356565b604082019050919050565b6000613741603883613e46565b915061374c826143a5565b604082019050919050565b6000613764602a83613e46565b915061376f826143f4565b604082019050919050565b6000613787602983613e46565b915061379282614443565b604082019050919050565b60006137aa602083613e46565b91506137b582614492565b602082019050919050565b60006137cd602c83613e46565b91506137d8826144bb565b604082019050919050565b60006137f0602083613e46565b91506137fb8261450a565b602082019050919050565b6000613813602983613e46565b915061381e82614533565b604082019050919050565b6000613836602f83613e46565b915061384182614582565b604082019050919050565b6000613859602183613e46565b9150613864826145d1565b604082019050919050565b600061387c602383613e46565b915061388782614620565b604082019050919050565b600061389f603183613e46565b91506138aa8261466f565b604082019050919050565b6138be81613feb565b82525050565b6138cd81613feb565b82525050565b6138dc81613ff5565b82525050565b60006138ef8284866135b0565b91508190509392505050565b6000613907828461360e565b915081905092915050565b600061391e828561360e565b915061392a828461360e565b91508190509392505050565b600060208201905061394b600083018461348e565b92915050565b6000608082019050613966600083018761348e565b613973602083018661348e565b61398060408301856138c4565b81810360608301526139928184613577565b905095945050505050565b600060208201905081810360008301526139b7818461349d565b905092915050565b600060208201905081810360008301526139d981846134fb565b905092915050565b60006020820190506139f66000830184613559565b92915050565b60006020820190508181036000830152613a1681846135d5565b905092915050565b600060c0820190508181036000830152613a3881896135d5565b90508181036020830152613a4c81886135d5565b9050613a5b60408301876138c4565b613a6860608301866138d3565b613a7560808301856138d3565b613a8260a08301846138c4565b979650505050505050565b60006060820190508181036000830152613aa781866135d5565b9050613ab660208301856138c4565b613ac360408301846138c4565b949350505050565b60006020820190508181036000830152613ae48161363f565b9050919050565b60006020820190508181036000830152613b0481613662565b9050919050565b60006020820190508181036000830152613b2481613685565b9050919050565b60006020820190508181036000830152613b44816136a8565b9050919050565b60006020820190508181036000830152613b64816136cb565b9050919050565b60006020820190508181036000830152613b84816136ee565b9050919050565b60006020820190508181036000830152613ba481613711565b9050919050565b60006020820190508181036000830152613bc481613734565b9050919050565b60006020820190508181036000830152613be481613757565b9050919050565b60006020820190508181036000830152613c048161377a565b9050919050565b60006020820190508181036000830152613c248161379d565b9050919050565b60006020820190508181036000830152613c44816137c0565b9050919050565b60006020820190508181036000830152613c64816137e3565b9050919050565b60006020820190508181036000830152613c8481613806565b9050919050565b60006020820190508181036000830152613ca481613829565b9050919050565b60006020820190508181036000830152613cc48161384c565b9050919050565b60006020820190508181036000830152613ce48161386f565b9050919050565b60006020820190508181036000830152613d0481613892565b9050919050565b6000602082019050613d2060008301846138c4565b92915050565b6000613d30613d41565b9050613d3c8282614076565b919050565b6000604051905090565b600067ffffffffffffffff821115613d6657613d656141ae565b5b613d6f826141dd565b9050602081019050919050565b600067ffffffffffffffff821115613d9757613d966141ae565b5b613da0826141dd565b9050602081019050919050565b6000819050602082019050919050565b6000819050602082019050919050565b600081519050919050565b600081519050919050565b600081519050919050565b600081519050919050565b6000602082019050919050565b6000602082019050919050565b600082825260208201905092915050565b600082825260208201905092915050565b600082825260208201905092915050565b600082825260208201905092915050565b600081905092915050565b6000613e6d82613feb565b9150613e7883613feb565b9250827fffffffffffffffffffffffffffffffffffffffffffffffffffffffffffffffff03821115613ead57613eac614121565b5b828201905092915050565b6000613ec382613feb565b9150613ece83613feb565b925082613ede57613edd614150565b5b828204905092915050565b6000613ef482613feb565b9150613eff83613feb565b9250817fffffffffffffffffffffffffffffffffffffffffffffffffffffffffffffffff0483118215151615613f3857613f37614121565b5b828202905092915050565b6000613f4e82613feb565b9150613f5983613feb565b925082821015613f6c57613f6b614121565b5b828203905092915050565b6000613f8282613fcb565b9050919050565b60008115159050919050565b6000819050919050565b60007fffffffff0000000000000000000000000000000000000000000000000000000082169050919050565b600073ffffffffffffffffffffffffffffffffffffffff82169050919050565b6000819050919050565b600060ff82169050919050565b82818337600083830152505050565b60005b8381101561402f578082015181840152602081019050614014565b8381111561403e576000848401525b50505050565b6000600282049050600182168061405c57607f821691505b602082108114156140705761406f61417f565b5b50919050565b61407f826141dd565b810181811067ffffffffffffffff8211171561409e5761409d6141ae565b5b80604052505050565b60006140b282613feb565b91507fffffffffffffffffffffffffffffffffffffffffffffffffffffffffffffffff8214156140e5576140e4614121565b5b600182019050919050565b60006140fb82613feb565b915061410683613feb565b92508261411657614115614150565b5b828206905092915050565b7f4e487b7100000000000000000000000000000000000000000000000000000000600052601160045260246000fd5b7f4e487b7100000000000000000000000000000000000000000000000000000000600052601260045260246000fd5b7f4e487b7100000000000000000000000000000000000000000000000000000000600052602260045260246000fd5b7f4e487b7100000000000000000000000000000000000000000000000000000000600052604160045260246000fd5b6000601f19601f8301169050919050565b7f4552433732313a207472616e7366657220746f206e6f6e20455243373231526560008201527f63656976657220696d706c656d656e7465720000000000000000000000000000602082015250565b7f4f776e61626c653a206e6577206f776e657220697320746865207a65726f206160008201527f6464726573730000000000000000000000000000000000000000000000000000602082015250565b7f4552433732313a20746f6b656e20616c7265616479206d696e74656400000000600082015250565b7f747265652074797065206e616d6520646f6573206e6f74206578697374000000600082015250565b7f4552433732313a207472616e7366657220746f20746865207a65726f2061646460008201527f7265737300000000000000000000000000000000000000000000000000000000602082015250565b7f4552433732313a20617070726f766520746f2063616c6c657200000000000000600082015250565b7f4552433732313a206f70657261746f7220717565727920666f72206e6f6e657860008201527f697374656e7420746f6b656e0000000000000000000000000000000000000000602082015250565b7f4552433732313a20617070726f76652063616c6c6572206973206e6f74206f7760008201527f6e6572206e6f7220617070726f76656420666f7220616c6c0000000000000000602082015250565b7f4552433732313a2062616c616e636520717565727920666f7220746865207a6560008201527f726f206164647265737300000000000000000000000000000000000000000000602082015250565b7f4552433732313a206f776e657220717565727920666f72206e6f6e657869737460008201527f656e7420746f6b656e0000000000000000000000000000000000000000000000602082015250565b7f4552433732313a206d696e7420746f20746865207a65726f2061646472657373600082015250565b7f4552433732313a20617070726f76656420717565727920666f72206e6f6e657860008201527f697374656e7420746f6b656e0000000000000000000000000000000000000000602082015250565b7f4f776e61626c653a2063616c6c6572206973206e6f7420746865206f776e6572600082015250565b7f4552433732313a207472616e73666572206f6620746f6b656e2074686174206960008201527f73206e6f74206f776e0000000000000000000000000000000000000000000000602082015250565b7f4552433732314d657461646174613a2055524920717565727920666f72206e6f60008201527f6e6578697374656e7420746f6b656e0000000000000000000000000000000000602082015250565b7f4552433732313a20617070726f76616c20746f2063757272656e74206f776e6560008201527f7200000000000000000000000000000000000000000000000000000000000000602082015250565b7f696e73756666696369656e742076616c756520746f207075726368617365207460008201527f7265650000000000000000000000000000000000000000000000000000000000602082015250565b7f4552433732313a207472616e736665722063616c6c6572206973206e6f74206f60008201527f776e6572206e6f7220617070726f766564000000000000000000000000000000602082015250565b6146c781613f77565b81146146d257600080fd5b50565b6146de81613f89565b81146146e957600080fd5b50565b6146f581613f95565b811461470057600080fd5b50565b61470c81613f9f565b811461471757600080fd5b50565b61472381613feb565b811461472e57600080fd5b50565b61473a81613ff5565b811461474557600080fd5b5056fea264697066735822122066e2efa5fdaabb44d1e0777089ad0ab462b54f736377533ebe7626226647763b64736f6c63430008040033",
  "linkReferences": {},
  "deployedLinkReferences": {}
}