{
  "_format": "hh-sol-artifact-1",
  "contractName": "TreeToken",
  "sourceName": "contracts/TreeToken.sol",
  "abi": [
    {
      "inputs": [],
      "stateMutability": "nonpayable",
      "type": "constructor"
    },
    {
      "anonymous": false,
      "inputs": [
        {
          "indexed": true,
          "internalType": "address",
          "name": "owner",
          "type": "address"
        },
        {
          "indexed": true,
          "internalType": "address",
          "name": "approved",
          "type": "address"
        },
        {
          "indexed": true,
          "internalType": "uint256",
          "name": "tokenId",
          "type": "uint256"
        }
      ],
      "name": "Approval",
      "type": "event"
    },
    {
      "anonymous": false,
      "inputs": [
        {
          "indexed": true,
          "internalType": "address",
          "name": "owner",
          "type": "address"
        },
        {
          "indexed": true,
          "internalType": "address",
          "name": "operator",
          "type": "address"
        },
        {
          "indexed": false,
          "internalType": "bool",
          "name": "approved",
          "type": "bool"
        }
      ],
      "name": "ApprovalForAll",
      "type": "event"
    },
    {
      "anonymous": false,
      "inputs": [
        {
          "indexed": true,
          "internalType": "address",
          "name": "previousOwner",
          "type": "address"
        },
        {
          "indexed": true,
          "internalType": "address",
          "name": "newOwner",
          "type": "address"
        }
      ],
      "name": "OwnershipTransferred",
      "type": "event"
    },
    {
      "anonymous": false,
      "inputs": [
        {
          "indexed": true,
          "internalType": "address",
          "name": "from",
          "type": "address"
        },
        {
          "indexed": true,
          "internalType": "address",
          "name": "to",
          "type": "address"
        },
        {
          "indexed": true,
          "internalType": "uint256",
          "name": "tokenId",
          "type": "uint256"
        }
      ],
      "name": "Transfer",
      "type": "event"
    },
    {
      "inputs": [
        {
          "internalType": "address",
          "name": "",
          "type": "address"
        }
      ],
      "name": "_oxygensOf",
      "outputs": [
        {
          "internalType": "uint256",
          "name": "",
          "type": "uint256"
        }
      ],
      "stateMutability": "view",
      "type": "function"
    },
    {
      "inputs": [
        {
          "internalType": "string",
          "name": "name_",
          "type": "string"
        },
        {
          "internalType": "uint256",
          "name": "O2Rate_",
          "type": "uint256"
        },
        {
          "internalType": "uint256",
          "name": "price_",
          "type": "uint256"
        }
      ],
      "name": "addTreeType",
      "outputs": [],
      "stateMutability": "nonpayable",
      "type": "function"
    },
    {
      "inputs": [
        {
          "internalType": "address",
          "name": "to",
          "type": "address"
        },
        {
          "internalType": "uint256",
          "name": "tokenId",
          "type": "uint256"
        }
      ],
      "name": "approve",
      "outputs": [],
      "stateMutability": "nonpayable",
      "type": "function"
    },
    {
      "inputs": [
        {
          "internalType": "address",
          "name": "owner",
          "type": "address"
        }
      ],
      "name": "balanceOf",
      "outputs": [
        {
          "internalType": "uint256",
          "name": "",
          "type": "uint256"
        }
      ],
      "stateMutability": "view",
      "type": "function"
    },
    {
      "inputs": [],
      "name": "claimOxygens",
      "outputs": [],
      "stateMutability": "nonpayable",
      "type": "function"
    },
    {
      "inputs": [
        {
          "internalType": "uint256",
          "name": "tokenId",
          "type": "uint256"
        }
      ],
      "name": "getApproved",
      "outputs": [
        {
          "internalType": "address",
          "name": "",
          "type": "address"
        }
      ],
      "stateMutability": "view",
      "type": "function"
    },
    {
      "inputs": [
        {
          "internalType": "uint256",
          "name": "treeId_",
          "type": "uint256"
        }
      ],
      "name": "getTreeById",
      "outputs": [
        {
          "internalType": "string",
          "name": "typeName",
          "type": "string"
        },
        {
          "internalType": "string",
          "name": "region",
          "type": "string"
        },
        {
          "internalType": "uint256",
          "name": "birthDate",
          "type": "uint256"
        },
        {
          "internalType": "uint16",
          "name": "height",
          "type": "uint16"
        },
        {
          "internalType": "uint8",
          "name": "diameter",
          "type": "uint8"
        },
        {
          "internalType": "uint256",
          "name": "transferredAt",
          "type": "uint256"
        }
      ],
      "stateMutability": "view",
      "type": "function"
    },
    {
      "inputs": [
        {
          "internalType": "bytes32",
          "name": "typeId_",
          "type": "bytes32"
        }
      ],
      "name": "getTreeTypeById",
      "outputs": [
        {
          "internalType": "string",
          "name": "name",
          "type": "string"
        },
        {
          "internalType": "uint256",
          "name": "O2Rate",
          "type": "uint256"
        },
        {
          "internalType": "uint256",
          "name": "price",
          "type": "uint256"
        }
      ],
      "stateMutability": "view",
      "type": "function"
    },
    {
      "inputs": [
        {
          "internalType": "string",
          "name": "name_",
          "type": "string"
        }
      ],
      "name": "getTreeTypeByName",
      "outputs": [
        {
          "internalType": "string",
          "name": "name",
          "type": "string"
        },
        {
          "internalType": "uint256",
          "name": "O2Rate",
          "type": "uint256"
        },
        {
          "internalType": "uint256",
          "name": "price",
          "type": "uint256"
        }
      ],
      "stateMutability": "view",
      "type": "function"
    },
    {
      "inputs": [],
      "name": "getTreeTypeIds",
      "outputs": [
        {
          "internalType": "bytes32[]",
          "name": "",
          "type": "bytes32[]"
        }
      ],
      "stateMutability": "view",
      "type": "function"
    },
    {
      "inputs": [
        {
          "internalType": "address",
          "name": "owner_",
          "type": "address"
        }
      ],
      "name": "getTreesOf",
      "outputs": [
        {
          "internalType": "uint256[]",
          "name": "",
          "type": "uint256[]"
        }
      ],
      "stateMutability": "view",
      "type": "function"
    },
    {
      "inputs": [
        {
          "internalType": "address",
          "name": "owner",
          "type": "address"
        },
        {
          "internalType": "address",
          "name": "operator",
          "type": "address"
        }
      ],
      "name": "isApprovedForAll",
      "outputs": [
        {
          "internalType": "bool",
          "name": "",
          "type": "bool"
        }
      ],
      "stateMutability": "view",
      "type": "function"
    },
    {
      "inputs": [],
      "name": "name",
      "outputs": [
        {
          "internalType": "string",
          "name": "",
          "type": "string"
        }
      ],
      "stateMutability": "view",
      "type": "function"
    },
    {
      "inputs": [],
      "name": "owner",
      "outputs": [
        {
          "internalType": "address",
          "name": "",
          "type": "address"
        }
      ],
      "stateMutability": "view",
      "type": "function"
    },
    {
      "inputs": [
        {
          "internalType": "uint256",
          "name": "tokenId",
          "type": "uint256"
        }
      ],
      "name": "ownerOf",
      "outputs": [
        {
          "internalType": "address",
          "name": "",
          "type": "address"
        }
      ],
      "stateMutability": "view",
      "type": "function"
    },
    {
      "inputs": [
        {
          "internalType": "address",
          "name": "account_",
          "type": "address"
        }
      ],
      "name": "oxygensOf",
      "outputs": [
        {
          "internalType": "uint256",
          "name": "",
          "type": "uint256"
        }
      ],
      "stateMutability": "view",
      "type": "function"
    },
    {
      "inputs": [
        {
          "internalType": "string",
          "name": "typeName_",
          "type": "string"
        },
        {
          "internalType": "string",
          "name": "region_",
          "type": "string"
        },
        {
          "internalType": "uint256",
          "name": "birthDate_",
          "type": "uint256"
        },
        {
          "internalType": "uint16",
          "name": "height_",
          "type": "uint16"
        },
        {
          "internalType": "uint8",
          "name": "diameter_",
          "type": "uint8"
        }
      ],
      "name": "purchaseTree",
      "outputs": [],
      "stateMutability": "payable",
      "type": "function"
    },
    {
      "inputs": [
        {
          "internalType": "string",
          "name": "name_",
          "type": "string"
        }
      ],
      "name": "removeTreeTypeByName",
      "outputs": [],
      "stateMutability": "nonpayable",
      "type": "function"
    },
    {
      "inputs": [],
      "name": "renounceOwnership",
      "outputs": [],
      "stateMutability": "nonpayable",
      "type": "function"
    },
    {
      "inputs": [
        {
          "internalType": "address",
          "name": "from",
          "type": "address"
        },
        {
          "internalType": "address",
          "name": "to",
          "type": "address"
        },
        {
          "internalType": "uint256",
          "name": "tokenId",
          "type": "uint256"
        }
      ],
      "name": "safeTransferFrom",
      "outputs": [],
      "stateMutability": "nonpayable",
      "type": "function"
    },
    {
      "inputs": [
        {
          "internalType": "address",
          "name": "from",
          "type": "address"
        },
        {
          "internalType": "address",
          "name": "to",
          "type": "address"
        },
        {
          "internalType": "uint256",
          "name": "tokenId",
          "type": "uint256"
        },
        {
          "internalType": "bytes",
          "name": "_data",
          "type": "bytes"
        }
      ],
      "name": "safeTransferFrom",
      "outputs": [],
      "stateMutability": "nonpayable",
      "type": "function"
    },
    {
      "inputs": [
        {
          "internalType": "address",
          "name": "operator",
          "type": "address"
        },
        {
          "internalType": "bool",
          "name": "approved",
          "type": "bool"
        }
      ],
      "name": "setApprovalForAll",
      "outputs": [],
      "stateMutability": "nonpayable",
      "type": "function"
    },
    {
      "inputs": [
        {
          "internalType": "bytes4",
          "name": "interfaceId",
          "type": "bytes4"
        }
      ],
      "name": "supportsInterface",
      "outputs": [
        {
          "internalType": "bool",
          "name": "",
          "type": "bool"
        }
      ],
      "stateMutability": "view",
      "type": "function"
    },
    {
      "inputs": [],
      "name": "symbol",
      "outputs": [
        {
          "internalType": "string",
          "name": "",
          "type": "string"
        }
      ],
      "stateMutability": "view",
      "type": "function"
    },
    {
      "inputs": [
        {
          "internalType": "uint256",
          "name": "tokenId",
          "type": "uint256"
        }
      ],
      "name": "tokenURI",
      "outputs": [
        {
          "internalType": "string",
          "name": "",
          "type": "string"
        }
      ],
      "stateMutability": "view",
      "type": "function"
    },
    {
      "inputs": [],
      "name": "totalOxygens",
      "outputs": [
        {
          "internalType": "uint256",
          "name": "",
          "type": "uint256"
        }
      ],
      "stateMutability": "view",
      "type": "function"
    },
    {
      "inputs": [
        {
          "internalType": "address",
          "name": "from",
          "type": "address"
        },
        {
          "internalType": "address",
          "name": "to",
          "type": "address"
        },
        {
          "internalType": "uint256",
          "name": "tokenId",
          "type": "uint256"
        }
      ],
      "name": "transferFrom",
      "outputs": [],
      "stateMutability": "nonpayable",
      "type": "function"
    },
    {
      "inputs": [
        {
          "internalType": "address",
          "name": "newOwner",
          "type": "address"
        }
      ],
      "name": "transferOwnership",
      "outputs": [],
      "stateMutability": "nonpayable",
      "type": "function"
    }
  ],
  "bytecode": "0x60806040523480156200001157600080fd5b506040518060400160405280600b81526020017f655472656520546f6b656e0000000000000000000000000000000000000000008152506040518060400160405280600381526020017f54524500000000000000000000000000000000000000000000000000000000008152506200009e62000092620000d860201b60201c565b620000e060201b60201c565b8160099080519060200190620000b6929190620001a6565b5080600a9080519060200190620000cf929190620001a6565b505050620002bb565b600033905090565b6000600260009054906101000a900473ffffffffffffffffffffffffffffffffffffffff16905081600260006101000a81548173ffffffffffffffffffffffffffffffffffffffff021916908373ffffffffffffffffffffffffffffffffffffffff1602179055508173ffffffffffffffffffffffffffffffffffffffff168173ffffffffffffffffffffffffffffffffffffffff167f8be0079c531659141344cd1fd0a4f28419497f9722a3daafe3b4186f6b6457e060405160405180910390a35050565b828054620001b49062000256565b90600052602060002090601f016020900481019282620001d8576000855562000224565b82601f10620001f357805160ff191683800117855562000224565b8280016001018555821562000224579182015b828111156200022357825182559160200191906001019062000206565b5b50905062000233919062000237565b5090565b5b808211156200025257600081600090555060010162000238565b5090565b600060028204905060018216806200026f57607f821691505b602082108114156200028657620002856200028c565b5b50919050565b7f4e487b7100000000000000000000000000000000000000000000000000000000600052602260045260246000fd5b6147d080620002cb6000396000f3fe6080604052600436106101b75760003560e01c8063715018a6116100ec578063b47e43641161008a578063c87b56dd11610064578063c87b56dd1461063c578063e985e9c514610679578063eafa70c6146106b6578063f2fde38b146106e1576101b7565b8063b47e4364146105a8578063b88d4fde146105ea578063bff71a2c14610613576101b7565b806395d89b41116100c657806395d89b41146104d8578063a22cb46514610503578063a5da70211461052c578063b04637a61461056b576101b7565b8063715018a614610457578063892e5dad1461046e5780638da5cb5b146104ad576101b7565b806342051fc2116101595780634965090511610133578063496509051461039d5780636352211e146103c657806365e7e3741461040357806370a082311461041a576101b7565b806342051fc21461031b57806342842e0e1461033757806343e4f3d014610360576101b7565b8063095ea7b311610195578063095ea7b3146102615780630b41015b1461028a57806323b872dd146102b557806335dcbcde146102de576101b7565b806301ffc9a7146101bc57806306fdde03146101f9578063081812fc14610224575b600080fd5b3480156101c857600080fd5b506101e360048036038101906101de919061325f565b61070a565b6040516101f09190613a0e565b60405180910390f35b34801561020557600080fd5b5061020e6107ec565b60405161021b9190613a29565b60405180910390f35b34801561023057600080fd5b5061024b60048036038101906102469190613453565b61087e565b6040516102589190613963565b60405180910390f35b34801561026d57600080fd5b50610288600480360381019061028391906131fa565b610903565b005b34801561029657600080fd5b5061029f610a1b565b6040516102ac9190613d38565b60405180910390f35b3480156102c157600080fd5b506102dc60048036038101906102d791906130f4565b610a25565b005b3480156102ea57600080fd5b506103056004803603810190610300919061308f565b610a85565b6040516103129190613d38565b60405180910390f35b610335600480360381019061033091906132f6565b610a9d565b005b34801561034357600080fd5b5061035e600480360381019061035991906130f4565b610c46565b005b34801561036c57600080fd5b506103876004803603810190610382919061308f565b610c66565b6040516103949190613d38565b60405180910390f35b3480156103a957600080fd5b506103c460048036038101906103bf91906132b1565b610cc7565b005b3480156103d257600080fd5b506103ed60048036038101906103e89190613453565b610d8a565b6040516103fa9190613963565b60405180910390f35b34801561040f57600080fd5b50610418610e3c565b005b34801561042657600080fd5b50610441600480360381019061043c919061308f565b610e47565b60405161044e9190613d38565b60405180910390f35b34801561046357600080fd5b5061046c610eff565b005b34801561047a57600080fd5b5061049560048036038101906104909190613412565b610f87565b6040516104a493929190613aba565b60405180910390f35b3480156104b957600080fd5b506104c2610fce565b6040516104cf9190613963565b60405180910390f35b3480156104e457600080fd5b506104ed610ff8565b6040516104fa9190613a29565b60405180910390f35b34801561050f57600080fd5b5061052a600480360381019061052591906131be565b61108a565b005b34801561053857600080fd5b50610553600480360381019061054e9190613236565b61120b565b60405161056293929190613aba565b60405180910390f35b34801561057757600080fd5b50610592600480360381019061058d919061308f565b611348565b60405161059f91906139ec565b60405180910390f35b3480156105b457600080fd5b506105cf60048036038101906105ca9190613453565b611398565b6040516105e196959493929190613a4b565b60405180910390f35b3480156105f657600080fd5b50610611600480360381019061060c9190613143565b6115a0565b005b34801561061f57600080fd5b5061063a600480360381019061063591906133a6565b611602565b005b34801561064857600080fd5b50610663600480360381019061065e9190613453565b611786565b6040516106709190613a29565b60405180910390f35b34801561068557600080fd5b506106a0600480360381019061069b91906130b8565b61182d565b6040516106ad9190613a0e565b60405180910390f35b3480156106c257600080fd5b506106cb6118c1565b6040516106d891906139ca565b60405180910390f35b3480156106ed57600080fd5b506107086004803603810190610703919061308f565b6118d2565b005b60007f80ac58cd000000000000000000000000000000000000000000000000000000007bffffffffffffffffffffffffffffffffffffffffffffffffffffffff1916827bffffffffffffffffffffffffffffffffffffffffffffffffffffffff191614806107d557507f5b5e139f000000000000000000000000000000000000000000000000000000007bffffffffffffffffffffffffffffffffffffffffffffffffffffffff1916827bffffffffffffffffffffffffffffffffffffffffffffffffffffffff1916145b806107e557506107e4826119ca565b5b9050919050565b6060600980546107fb9061407f565b80601f01602080910402602001604051908101604052809291908181526020018280546108279061407f565b80156108745780601f1061084957610100808354040283529160200191610874565b820191906000526020600020905b81548152906001019060200180831161085757829003601f168201915b5050505050905090565b600061088982611a34565b6108c8576040517f08c379a00000000000000000000000000000000000000000000000000000000081526004016108bf90613c58565b60405180910390fd5b600d600083815260200190815260200160002060009054906101000a900473ffffffffffffffffffffffffffffffffffffffff169050919050565b600061090e82610d8a565b90508073ffffffffffffffffffffffffffffffffffffffff168373ffffffffffffffffffffffffffffffffffffffff16141561097f576040517f08c379a000000000000000000000000000000000000000000000000000000000815260040161097690613cd8565b60405180910390fd5b8073ffffffffffffffffffffffffffffffffffffffff1661099e611aa0565b73ffffffffffffffffffffffffffffffffffffffff1614806109cd57506109cc816109c7611aa0565b61182d565b5b610a0c576040517f08c379a0000000000000000000000000000000000000000000000000000000008152600401610a0390613bd8565b60405180910390fd5b610a168383611aa8565b505050565b6000600654905090565b610a36610a30611aa0565b82611b61565b610a75576040517f08c379a0000000000000000000000000000000000000000000000000000000008152600401610a6c90613d18565b60405180910390fd5b610a80838383611c3f565b505050565b60076020528060005260406000206000915090505481565b6000610aec88888080601f016020809104026020016040519081016040528093929190818152602001838380828437600081840152601f19601f82011690508083019250505050505050610f87565b9250505080341015610b33576040517f08c379a0000000000000000000000000000000000000000000000000000000008152600401610b2a90613cf8565b60405180910390fd5b610b3c33611c6c565b6000610bd4338a8a8080601f016020809104026020016040519081016040528093929190818152602001838380828437600081840152601f19601f8201169050808301925050505050505089898080601f016020809104026020016040519081016040528093929190818152602001838380828437600081840152601f19601f82011690508083019250505050505050888888611d30565b9050610be03382611e9a565b81341115610c3b573373ffffffffffffffffffffffffffffffffffffffff166108fc8334610c0e9190613f70565b9081150290604051600060405180830381858888f19350505050158015610c39573d6000803e3d6000fd5b505b505050505050505050565b610c61838383604051806020016040528060008152506115a0565b505050565b600080610c7283612068565b905080600760008573ffffffffffffffffffffffffffffffffffffffff1673ffffffffffffffffffffffffffffffffffffffff16815260200190815260200160002054610cbf9190613e8f565b915050919050565b610ccf611aa0565b73ffffffffffffffffffffffffffffffffffffffff16610ced610fce565b73ffffffffffffffffffffffffffffffffffffffff1614610d43576040517f08c379a0000000000000000000000000000000000000000000000000000000008152600401610d3a90613c78565b60405180910390fd5b60008282604051602001610d5892919061390f565b604051602081830303815290604052805190602001209050610d8481600461236c90919063ffffffff16565b50505050565b600080600b600084815260200190815260200160002060009054906101000a900473ffffffffffffffffffffffffffffffffffffffff169050600073ffffffffffffffffffffffffffffffffffffffff168173ffffffffffffffffffffffffffffffffffffffff161415610e33576040517f08c379a0000000000000000000000000000000000000000000000000000000008152600401610e2a90613c18565b60405180910390fd5b80915050919050565b610e4533611c6c565b565b60008073ffffffffffffffffffffffffffffffffffffffff168273ffffffffffffffffffffffffffffffffffffffff161415610eb8576040517f08c379a0000000000000000000000000000000000000000000000000000000008152600401610eaf90613bf8565b60405180910390fd5b600c60008373ffffffffffffffffffffffffffffffffffffffff1673ffffffffffffffffffffffffffffffffffffffff168152602001908152602001600020549050919050565b610f07611aa0565b73ffffffffffffffffffffffffffffffffffffffff16610f25610fce565b73ffffffffffffffffffffffffffffffffffffffff1614610f7b576040517f08c379a0000000000000000000000000000000000000000000000000000000008152600401610f7290613c78565b60405180910390fd5b610f856000612383565b565b6060600080600084604051602001610f9f9190613928565b604051602081830303815290604052805190602001209050610fc08161120b565b935093509350509193909250565b6000600260009054906101000a900473ffffffffffffffffffffffffffffffffffffffff16905090565b6060600a80546110079061407f565b80601f01602080910402602001604051908101604052809291908181526020018280546110339061407f565b80156110805780601f1061105557610100808354040283529160200191611080565b820191906000526020600020905b81548152906001019060200180831161106357829003601f168201915b5050505050905090565b611092611aa0565b73ffffffffffffffffffffffffffffffffffffffff168273ffffffffffffffffffffffffffffffffffffffff161415611100576040517f08c379a00000000000000000000000000000000000000000000000000000000081526004016110f790613b98565b60405180910390fd5b80600e600061110d611aa0565b73ffffffffffffffffffffffffffffffffffffffff1673ffffffffffffffffffffffffffffffffffffffff16815260200190815260200160002060008473ffffffffffffffffffffffffffffffffffffffff1673ffffffffffffffffffffffffffffffffffffffff16815260200190815260200160002060006101000a81548160ff0219169083151502179055508173ffffffffffffffffffffffffffffffffffffffff166111ba611aa0565b73ffffffffffffffffffffffffffffffffffffffff167f17307eab39ab6107e8899845ad3d59bd9653f200f220920489ca2b5937696c31836040516111ff9190613a0e565b60405180910390a35050565b606060008061122484600461244990919063ffffffff16565b611263576040517f08c379a000000000000000000000000000000000000000000000000000000000815260040161125a90613b58565b60405180910390fd5b6000600360008681526020019081526020016000206040518060600160405290816000820180546112939061407f565b80601f01602080910402602001604051908101604052809291908181526020018280546112bf9061407f565b801561130c5780601f106112e15761010080835404028352916020019161130c565b820191906000526020600020905b8154815290600101906020018083116112ef57829003601f168201915b50505050508152602001600182015481526020016002820154815250509050806000015193508060200151925080604001519150509193909250565b6060611391600160008473ffffffffffffffffffffffffffffffffffffffff1673ffffffffffffffffffffffffffffffffffffffff168152602001908152602001600020612460565b9050919050565b60608060008060008060008088815481106113dc577f4e487b7100000000000000000000000000000000000000000000000000000000600052603260045260246000fd5b90600052602060002090600502016040518060c00160405290816000820180546114059061407f565b80601f01602080910402602001604051908101604052809291908181526020018280546114319061407f565b801561147e5780601f106114535761010080835404028352916020019161147e565b820191906000526020600020905b81548152906001019060200180831161146157829003601f168201915b505050505081526020016001820180546114979061407f565b80601f01602080910402602001604051908101604052809291908181526020018280546114c39061407f565b80156115105780601f106114e557610100808354040283529160200191611510565b820191906000526020600020905b8154815290600101906020018083116114f357829003601f168201915b50505050508152602001600282015481526020016003820160009054906101000a900461ffff1661ffff1661ffff1681526020016003820160029054906101000a900460ff1660ff1660ff168152602001600482015481525050905080600001519650806020015195508060400151945080606001519350806080015192508060a0015191505091939550919395565b6115b16115ab611aa0565b83611b61565b6115f0576040517f08c379a00000000000000000000000000000000000000000000000000000000081526004016115e790613d18565b60405180910390fd5b6115fc84848484612481565b50505050565b61160a611aa0565b73ffffffffffffffffffffffffffffffffffffffff16611628610fce565b73ffffffffffffffffffffffffffffffffffffffff161461167e576040517f08c379a000000000000000000000000000000000000000000000000000000000815260040161167590613c78565b60405180910390fd5b6000848460405160200161169392919061390f565b6040516020818303038152906040528051906020012090506116bf81600461244990919063ffffffff16565b61177f57604051806060016040528086868080601f016020809104026020016040519081016040528093929190818152602001838380828437600081840152601f19601f82011690508083019250505050505050815260200184815260200183815250600360008381526020019081526020016000206000820151816000019080519060200190611751929190612e2a565b50602082015181600101556040820151816002015590505061177d8160046124dd90919063ffffffff16565b505b5050505050565b606061179182611a34565b6117d0576040517f08c379a00000000000000000000000000000000000000000000000000000000081526004016117c790613cb8565b60405180910390fd5b60006117da6124f4565b905060008151116117fa5760405180602001604052806000815250611825565b806118048461250b565b60405160200161181592919061393f565b6040516020818303038152906040525b915050919050565b6000600e60008473ffffffffffffffffffffffffffffffffffffffff1673ffffffffffffffffffffffffffffffffffffffff16815260200190815260200160002060008373ffffffffffffffffffffffffffffffffffffffff1673ffffffffffffffffffffffffffffffffffffffff16815260200190815260200160002060009054906101000a900460ff16905092915050565b60606118cd60046126b8565b905090565b6118da611aa0565b73ffffffffffffffffffffffffffffffffffffffff166118f8610fce565b73ffffffffffffffffffffffffffffffffffffffff161461194e576040517f08c379a000000000000000000000000000000000000000000000000000000000815260040161194590613c78565b60405180910390fd5b600073ffffffffffffffffffffffffffffffffffffffff168173ffffffffffffffffffffffffffffffffffffffff1614156119be576040517f08c379a00000000000000000000000000000000000000000000000000000000081526004016119b590613b18565b60405180910390fd5b6119c781612383565b50565b60007f01ffc9a7000000000000000000000000000000000000000000000000000000007bffffffffffffffffffffffffffffffffffffffffffffffffffffffff1916827bffffffffffffffffffffffffffffffffffffffffffffffffffffffff1916149050919050565b60008073ffffffffffffffffffffffffffffffffffffffff16600b600084815260200190815260200160002060009054906101000a900473ffffffffffffffffffffffffffffffffffffffff1673ffffffffffffffffffffffffffffffffffffffff1614159050919050565b600033905090565b81600d600083815260200190815260200160002060006101000a81548173ffffffffffffffffffffffffffffffffffffffff021916908373ffffffffffffffffffffffffffffffffffffffff160217905550808273ffffffffffffffffffffffffffffffffffffffff16611b1b83610d8a565b73ffffffffffffffffffffffffffffffffffffffff167f8c5be1e5ebec7d5bd14f71427d1e84f3dd0314c0f7b2291e5b200ac8c7c3b92560405160405180910390a45050565b6000611b6c82611a34565b611bab576040517f08c379a0000000000000000000000000000000000000000000000000000000008152600401611ba290613bb8565b60405180910390fd5b6000611bb683610d8a565b90508073ffffffffffffffffffffffffffffffffffffffff168473ffffffffffffffffffffffffffffffffffffffff161480611c2557508373ffffffffffffffffffffffffffffffffffffffff16611c0d8461087e565b73ffffffffffffffffffffffffffffffffffffffff16145b80611c365750611c35818561182d565b5b91505092915050565b611c4883611c6c565b611c5182611c6c565b611c5c8383836126cd565b611c67838383612776565b505050565b6000611c7782612068565b905080600760008473ffffffffffffffffffffffffffffffffffffffff1673ffffffffffffffffffffffffffffffffffffffff1681526020019081526020016000206000828254611cc89190613e8f565b925050819055508060066000828254611ce19190613e8f565b9250508190555042600860008473ffffffffffffffffffffffffffffffffffffffff1673ffffffffffffffffffffffffffffffffffffffff168152602001908152602001600020819055505050565b6000806040518060c001604052808881526020018781526020018681526020018561ffff1681526020018460ff16815260200142815250905060008190806001815401808255809150506001900390600052602060002090600502016000909190919091506000820151816000019080519060200190611db1929190612e2a565b506020820151816001019080519060200190611dce929190612e2a565b506040820151816002015560608201518160030160006101000a81548161ffff021916908361ffff16021790555060808201518160030160026101000a81548160ff021916908360ff16021790555060a0820151816004015550506001600080549050611e3b9190613f70565b9150611e8e82600160008b73ffffffffffffffffffffffffffffffffffffffff1673ffffffffffffffffffffffffffffffffffffffff1681526020019081526020016000206129d290919063ffffffff16565b50509695505050505050565b600073ffffffffffffffffffffffffffffffffffffffff168273ffffffffffffffffffffffffffffffffffffffff161415611f0a576040517f08c379a0000000000000000000000000000000000000000000000000000000008152600401611f0190613c38565b60405180910390fd5b611f1381611a34565b15611f53576040517f08c379a0000000000000000000000000000000000000000000000000000000008152600401611f4a90613b38565b60405180910390fd5b611f5f600083836129ec565b6001600c60008473ffffffffffffffffffffffffffffffffffffffff1673ffffffffffffffffffffffffffffffffffffffff1681526020019081526020016000206000828254611faf9190613e8f565b9250508190555081600b600083815260200190815260200160002060006101000a81548173ffffffffffffffffffffffffffffffffffffffff021916908373ffffffffffffffffffffffffffffffffffffffff160217905550808273ffffffffffffffffffffffffffffffffffffffff16600073ffffffffffffffffffffffffffffffffffffffff167fddf252ad1be2c89b69c2b068fc378daa952ba7f163c4a11628f55a4df523b3ef60405160405180910390a45050565b6000806120b2600160008573ffffffffffffffffffffffffffffffffffffffff1673ffffffffffffffffffffffffffffffffffffffff168152602001908152602001600020612460565b90506000600860008573ffffffffffffffffffffffffffffffffffffffff1673ffffffffffffffffffffffffffffffffffffffff16815260200190815260200160002054426121019190613f70565b9050600080600090505b835181101561236057600080858381518110612150577f4e487b7100000000000000000000000000000000000000000000000000000000600052603260045260246000fd5b60200260200101518154811061218f577f4e487b7100000000000000000000000000000000000000000000000000000000600052603260045260246000fd5b90600052602060002090600502016040518060c00160405290816000820180546121b89061407f565b80601f01602080910402602001604051908101604052809291908181526020018280546121e49061407f565b80156122315780601f1061220657610100808354040283529160200191612231565b820191906000526020600020905b81548152906001019060200180831161221457829003601f168201915b5050505050815260200160018201805461224a9061407f565b80601f01602080910402602001604051908101604052809291908181526020018280546122769061407f565b80156122c35780601f10612298576101008083540402835291602001916122c3565b820191906000526020600020905b8154815290600101906020018083116122a657829003601f168201915b50505050508152602001600282015481526020016003820160009054906101000a900461ffff1661ffff1661ffff1681526020016003820160029054906101000a900460ff1660ff1660ff1681526020016004820154815250509050600061232e8260000151610f87565b50915050808561233e9190613f16565b846123499190613e8f565b935050508080612358906140e2565b91505061210b565b50809350505050919050565b600061237b83600001836129f1565b905092915050565b6000600260009054906101000a900473ffffffffffffffffffffffffffffffffffffffff16905081600260006101000a81548173ffffffffffffffffffffffffffffffffffffffff021916908373ffffffffffffffffffffffffffffffffffffffff1602179055508173ffffffffffffffffffffffffffffffffffffffff168173ffffffffffffffffffffffffffffffffffffffff167f8be0079c531659141344cd1fd0a4f28419497f9722a3daafe3b4186f6b6457e060405160405180910390a35050565b60006124588360000183612b77565b905092915050565b6060600061247083600001612b9a565b905060608190508092505050919050565b61248c848484611c3f565b61249884848484612bf6565b6124d7576040517f08c379a00000000000000000000000000000000000000000000000000000000081526004016124ce90613af8565b60405180910390fd5b50505050565b60006124ec8360000183612d8d565b905092915050565b606060405180602001604052806000815250905090565b60606000821415612553576040518060400160405280600181526020017f300000000000000000000000000000000000000000000000000000000000000081525090506126b3565b600082905060005b6000821461258557808061256e906140e2565b915050600a8261257e9190613ee5565b915061255b565b60008167ffffffffffffffff8111156125c7577f4e487b7100000000000000000000000000000000000000000000000000000000600052604160045260246000fd5b6040519080825280601f01601f1916602001820160405280156125f95781602001600182028036833780820191505090505b5090505b600085146126ac576001826126129190613f70565b9150600a85612621919061412b565b603061262d9190613e8f565b60f81b818381518110612669577f4e487b7100000000000000000000000000000000000000000000000000000000600052603260045260246000fd5b60200101907effffffffffffffffffffffffffffffffffffffffffffffffffffffffffffff1916908160001a905350600a856126a59190613ee5565b94506125fd565b8093505050505b919050565b60606126c682600001612b9a565b9050919050565b61271e81600160008673ffffffffffffffffffffffffffffffffffffffff1673ffffffffffffffffffffffffffffffffffffffff168152602001908152602001600020612dfd90919063ffffffff16565b5061277081600160008573ffffffffffffffffffffffffffffffffffffffff1673ffffffffffffffffffffffffffffffffffffffff1681526020019081526020016000206129d290919063ffffffff16565b50505050565b8273ffffffffffffffffffffffffffffffffffffffff1661279682610d8a565b73ffffffffffffffffffffffffffffffffffffffff16146127ec576040517f08c379a00000000000000000000000000000000000000000000000000000000081526004016127e390613c98565b60405180910390fd5b600073ffffffffffffffffffffffffffffffffffffffff168273ffffffffffffffffffffffffffffffffffffffff16141561285c576040517f08c379a000000000000000000000000000000000000000000000000000000000815260040161285390613b78565b60405180910390fd5b6128678383836129ec565b612872600082611aa8565b6001600c60008573ffffffffffffffffffffffffffffffffffffffff1673ffffffffffffffffffffffffffffffffffffffff16815260200190815260200160002060008282546128c29190613f70565b925050819055506001600c60008473ffffffffffffffffffffffffffffffffffffffff1673ffffffffffffffffffffffffffffffffffffffff16815260200190815260200160002060008282546129199190613e8f565b9250508190555081600b600083815260200190815260200160002060006101000a81548173ffffffffffffffffffffffffffffffffffffffff021916908373ffffffffffffffffffffffffffffffffffffffff160217905550808273ffffffffffffffffffffffffffffffffffffffff168473ffffffffffffffffffffffffffffffffffffffff167fddf252ad1be2c89b69c2b068fc378daa952ba7f163c4a11628f55a4df523b3ef60405160405180910390a4505050565b60006129e4836000018360001b612d8d565b905092915050565b505050565b60008083600101600084815260200190815260200160002054905060008114612b6b576000600182612a239190613f70565b9050600060018660000180549050612a3b9190613f70565b9050818114612af6576000866000018281548110612a82577f4e487b7100000000000000000000000000000000000000000000000000000000600052603260045260246000fd5b9060005260206000200154905080876000018481548110612acc577f4e487b7100000000000000000000000000000000000000000000000000000000600052603260045260246000fd5b90600052602060002001819055508387600101600083815260200190815260200160002081905550505b85600001805480612b30577f4e487b7100000000000000000000000000000000000000000000000000000000600052603160045260246000fd5b600190038181906000526020600020016000905590558560010160008681526020019081526020016000206000905560019350505050612b71565b60009150505b92915050565b600080836001016000848152602001908152602001600020541415905092915050565b606081600001805480602002602001604051908101604052809291908181526020018280548015612bea57602002820191906000526020600020905b815481526020019060010190808311612bd6575b50505050509050919050565b6000612c178473ffffffffffffffffffffffffffffffffffffffff16612e17565b15612d80578373ffffffffffffffffffffffffffffffffffffffff1663150b7a02612c40611aa0565b8786866040518563ffffffff1660e01b8152600401612c62949392919061397e565b602060405180830381600087803b158015612c7c57600080fd5b505af1925050508015612cad57506040513d601f19601f82011682018060405250810190612caa9190613288565b60015b612d30573d8060008114612cdd576040519150601f19603f3d011682016040523d82523d6000602084013e612ce2565b606091505b50600081511415612d28576040517f08c379a0000000000000000000000000000000000000000000000000000000008152600401612d1f90613af8565b60405180910390fd5b805181602001fd5b63150b7a0260e01b7bffffffffffffffffffffffffffffffffffffffffffffffffffffffff1916817bffffffffffffffffffffffffffffffffffffffffffffffffffffffff191614915050612d85565b600190505b949350505050565b6000612d998383612b77565b612df2578260000182908060018154018082558091505060019003906000526020600020016000909190919091505582600001805490508360010160008481526020019081526020016000208190555060019050612df7565b600090505b92915050565b6000612e0f836000018360001b6129f1565b905092915050565b600080823b905060008111915050919050565b828054612e369061407f565b90600052602060002090601f016020900481019282612e585760008555612e9f565b82601f10612e7157805160ff1916838001178555612e9f565b82800160010185558215612e9f579182015b82811115612e9e578251825591602001919060010190612e83565b5b509050612eac9190612eb0565b5090565b5b80821115612ec9576000816000905550600101612eb1565b5090565b6000612ee0612edb84613d78565b613d53565b905082815260208101848484011115612ef857600080fd5b612f0384828561403d565b509392505050565b6000612f1e612f1984613da9565b613d53565b905082815260208101848484011115612f3657600080fd5b612f4184828561403d565b509392505050565b600081359050612f58816146f9565b92915050565b600081359050612f6d81614710565b92915050565b600081359050612f8281614727565b92915050565b600081359050612f978161473e565b92915050565b600081519050612fac8161473e565b92915050565b600082601f830112612fc357600080fd5b8135612fd3848260208601612ecd565b91505092915050565b60008083601f840112612fee57600080fd5b8235905067ffffffffffffffff81111561300757600080fd5b60208301915083600182028301111561301f57600080fd5b9250929050565b600082601f83011261303757600080fd5b8135613047848260208601612f0b565b91505092915050565b60008135905061305f81614755565b92915050565b6000813590506130748161476c565b92915050565b60008135905061308981614783565b92915050565b6000602082840312156130a157600080fd5b60006130af84828501612f49565b91505092915050565b600080604083850312156130cb57600080fd5b60006130d985828601612f49565b92505060206130ea85828601612f49565b9150509250929050565b60008060006060848603121561310957600080fd5b600061311786828701612f49565b935050602061312886828701612f49565b925050604061313986828701613065565b9150509250925092565b6000806000806080858703121561315957600080fd5b600061316787828801612f49565b945050602061317887828801612f49565b935050604061318987828801613065565b925050606085013567ffffffffffffffff8111156131a657600080fd5b6131b287828801612fb2565b91505092959194509250565b600080604083850312156131d157600080fd5b60006131df85828601612f49565b92505060206131f085828601612f5e565b9150509250929050565b6000806040838503121561320d57600080fd5b600061321b85828601612f49565b925050602061322c85828601613065565b9150509250929050565b60006020828403121561324857600080fd5b600061325684828501612f73565b91505092915050565b60006020828403121561327157600080fd5b600061327f84828501612f88565b91505092915050565b60006020828403121561329a57600080fd5b60006132a884828501612f9d565b91505092915050565b600080602083850312156132c457600080fd5b600083013567ffffffffffffffff8111156132de57600080fd5b6132ea85828601612fdc565b92509250509250929050565b600080600080600080600060a0888a03121561331157600080fd5b600088013567ffffffffffffffff81111561332b57600080fd5b6133378a828b01612fdc565b9750975050602088013567ffffffffffffffff81111561335657600080fd5b6133628a828b01612fdc565b955095505060406133758a828b01613065565b93505060606133868a828b01613050565b92505060806133978a828b0161307a565b91505092959891949750929550565b600080600080606085870312156133bc57600080fd5b600085013567ffffffffffffffff8111156133d657600080fd5b6133e287828801612fdc565b945094505060206133f587828801613065565b925050604061340687828801613065565b91505092959194509250565b60006020828403121561342457600080fd5b600082013567ffffffffffffffff81111561343e57600080fd5b61344a84828501613026565b91505092915050565b60006020828403121561346557600080fd5b600061347384828501613065565b91505092915050565b60006134888383613586565b60208301905092915050565b60006134a083836138e2565b60208301905092915050565b6134b581613fa4565b82525050565b60006134c682613dfa565b6134d08185613e40565b93506134db83613dda565b8060005b8381101561350c5781516134f3888261347c565b97506134fe83613e26565b9250506001810190506134df565b5085935050505092915050565b600061352482613e05565b61352e8185613e51565b935061353983613dea565b8060005b8381101561356a5781516135518882613494565b975061355c83613e33565b92505060018101905061353d565b5085935050505092915050565b61358081613fb6565b82525050565b61358f81613fc2565b82525050565b60006135a082613e10565b6135aa8185613e62565b93506135ba81856020860161404c565b6135c381614218565b840191505092915050565b60006135da8385613e84565b93506135e783858461403d565b82840190509392505050565b60006135fe82613e1b565b6136088185613e73565b935061361881856020860161404c565b61362181614218565b840191505092915050565b600061363782613e1b565b6136418185613e84565b935061365181856020860161404c565b80840191505092915050565b600061366a603283613e73565b915061367582614229565b604082019050919050565b600061368d602683613e73565b915061369882614278565b604082019050919050565b60006136b0601c83613e73565b91506136bb826142c7565b602082019050919050565b60006136d3601d83613e73565b91506136de826142f0565b602082019050919050565b60006136f6602483613e73565b915061370182614319565b604082019050919050565b6000613719601983613e73565b915061372482614368565b602082019050919050565b600061373c602c83613e73565b915061374782614391565b604082019050919050565b600061375f603883613e73565b915061376a826143e0565b604082019050919050565b6000613782602a83613e73565b915061378d8261442f565b604082019050919050565b60006137a5602983613e73565b91506137b08261447e565b604082019050919050565b60006137c8602083613e73565b91506137d3826144cd565b602082019050919050565b60006137eb602c83613e73565b91506137f6826144f6565b604082019050919050565b600061380e602083613e73565b915061381982614545565b602082019050919050565b6000613831602983613e73565b915061383c8261456e565b604082019050919050565b6000613854602f83613e73565b915061385f826145bd565b604082019050919050565b6000613877602183613e73565b91506138828261460c565b604082019050919050565b600061389a602383613e73565b91506138a58261465b565b604082019050919050565b60006138bd603183613e73565b91506138c8826146aa565b604082019050919050565b6138dc81613ff8565b82525050565b6138eb81614026565b82525050565b6138fa81614026565b82525050565b61390981614030565b82525050565b600061391c8284866135ce565b91508190509392505050565b6000613934828461362c565b915081905092915050565b600061394b828561362c565b9150613957828461362c565b91508190509392505050565b600060208201905061397860008301846134ac565b92915050565b600060808201905061399360008301876134ac565b6139a060208301866134ac565b6139ad60408301856138f1565b81810360608301526139bf8184613595565b905095945050505050565b600060208201905081810360008301526139e481846134bb565b905092915050565b60006020820190508181036000830152613a068184613519565b905092915050565b6000602082019050613a236000830184613577565b92915050565b60006020820190508181036000830152613a4381846135f3565b905092915050565b600060c0820190508181036000830152613a6581896135f3565b90508181036020830152613a7981886135f3565b9050613a8860408301876138f1565b613a9560608301866138d3565b613aa26080830185613900565b613aaf60a08301846138f1565b979650505050505050565b60006060820190508181036000830152613ad481866135f3565b9050613ae360208301856138f1565b613af060408301846138f1565b949350505050565b60006020820190508181036000830152613b118161365d565b9050919050565b60006020820190508181036000830152613b3181613680565b9050919050565b60006020820190508181036000830152613b51816136a3565b9050919050565b60006020820190508181036000830152613b71816136c6565b9050919050565b60006020820190508181036000830152613b91816136e9565b9050919050565b60006020820190508181036000830152613bb18161370c565b9050919050565b60006020820190508181036000830152613bd18161372f565b9050919050565b60006020820190508181036000830152613bf181613752565b9050919050565b60006020820190508181036000830152613c1181613775565b9050919050565b60006020820190508181036000830152613c3181613798565b9050919050565b60006020820190508181036000830152613c51816137bb565b9050919050565b60006020820190508181036000830152613c71816137de565b9050919050565b60006020820190508181036000830152613c9181613801565b9050919050565b60006020820190508181036000830152613cb181613824565b9050919050565b60006020820190508181036000830152613cd181613847565b9050919050565b60006020820190508181036000830152613cf18161386a565b9050919050565b60006020820190508181036000830152613d118161388d565b9050919050565b60006020820190508181036000830152613d31816138b0565b9050919050565b6000602082019050613d4d60008301846138f1565b92915050565b6000613d5d613d6e565b9050613d6982826140b1565b919050565b6000604051905090565b600067ffffffffffffffff821115613d9357613d926141e9565b5b613d9c82614218565b9050602081019050919050565b600067ffffffffffffffff821115613dc457613dc36141e9565b5b613dcd82614218565b9050602081019050919050565b6000819050602082019050919050565b6000819050602082019050919050565b600081519050919050565b600081519050919050565b600081519050919050565b600081519050919050565b6000602082019050919050565b6000602082019050919050565b600082825260208201905092915050565b600082825260208201905092915050565b600082825260208201905092915050565b600082825260208201905092915050565b600081905092915050565b6000613e9a82614026565b9150613ea583614026565b9250827fffffffffffffffffffffffffffffffffffffffffffffffffffffffffffffffff03821115613eda57613ed961415c565b5b828201905092915050565b6000613ef082614026565b9150613efb83614026565b925082613f0b57613f0a61418b565b5b828204905092915050565b6000613f2182614026565b9150613f2c83614026565b9250817fffffffffffffffffffffffffffffffffffffffffffffffffffffffffffffffff0483118215151615613f6557613f6461415c565b5b828202905092915050565b6000613f7b82614026565b9150613f8683614026565b925082821015613f9957613f9861415c565b5b828203905092915050565b6000613faf82614006565b9050919050565b60008115159050919050565b6000819050919050565b60007fffffffff0000000000000000000000000000000000000000000000000000000082169050919050565b600061ffff82169050919050565b600073ffffffffffffffffffffffffffffffffffffffff82169050919050565b6000819050919050565b600060ff82169050919050565b82818337600083830152505050565b60005b8381101561406a57808201518184015260208101905061404f565b83811115614079576000848401525b50505050565b6000600282049050600182168061409757607f821691505b602082108114156140ab576140aa6141ba565b5b50919050565b6140ba82614218565b810181811067ffffffffffffffff821117156140d9576140d86141e9565b5b80604052505050565b60006140ed82614026565b91507fffffffffffffffffffffffffffffffffffffffffffffffffffffffffffffffff8214156141205761411f61415c565b5b600182019050919050565b600061413682614026565b915061414183614026565b9250826141515761415061418b565b5b828206905092915050565b7f4e487b7100000000000000000000000000000000000000000000000000000000600052601160045260246000fd5b7f4e487b7100000000000000000000000000000000000000000000000000000000600052601260045260246000fd5b7f4e487b7100000000000000000000000000000000000000000000000000000000600052602260045260246000fd5b7f4e487b7100000000000000000000000000000000000000000000000000000000600052604160045260246000fd5b6000601f19601f8301169050919050565b7f4552433732313a207472616e7366657220746f206e6f6e20455243373231526560008201527f63656976657220696d706c656d656e7465720000000000000000000000000000602082015250565b7f4f776e61626c653a206e6577206f776e657220697320746865207a65726f206160008201527f6464726573730000000000000000000000000000000000000000000000000000602082015250565b7f4552433732313a20746f6b656e20616c7265616479206d696e74656400000000600082015250565b7f747265652074797065206e616d6520646f6573206e6f74206578697374000000600082015250565b7f4552433732313a207472616e7366657220746f20746865207a65726f2061646460008201527f7265737300000000000000000000000000000000000000000000000000000000602082015250565b7f4552433732313a20617070726f766520746f2063616c6c657200000000000000600082015250565b7f4552433732313a206f70657261746f7220717565727920666f72206e6f6e657860008201527f697374656e7420746f6b656e0000000000000000000000000000000000000000602082015250565b7f4552433732313a20617070726f76652063616c6c6572206973206e6f74206f7760008201527f6e6572206e6f7220617070726f76656420666f7220616c6c0000000000000000602082015250565b7f4552433732313a2062616c616e636520717565727920666f7220746865207a6560008201527f726f206164647265737300000000000000000000000000000000000000000000602082015250565b7f4552433732313a206f776e657220717565727920666f72206e6f6e657869737460008201527f656e7420746f6b656e0000000000000000000000000000000000000000000000602082015250565b7f4552433732313a206d696e7420746f20746865207a65726f2061646472657373600082015250565b7f4552433732313a20617070726f76656420717565727920666f72206e6f6e657860008201527f697374656e7420746f6b656e0000000000000000000000000000000000000000602082015250565b7f4f776e61626c653a2063616c6c6572206973206e6f7420746865206f776e6572600082015250565b7f4552433732313a207472616e73666572206f6620746f6b656e2074686174206960008201527f73206e6f74206f776e0000000000000000000000000000000000000000000000602082015250565b7f4552433732314d657461646174613a2055524920717565727920666f72206e6f60008201527f6e6578697374656e7420746f6b656e0000000000000000000000000000000000602082015250565b7f4552433732313a20617070726f76616c20746f2063757272656e74206f776e6560008201527f7200000000000000000000000000000000000000000000000000000000000000602082015250565b7f696e73756666696369656e742076616c756520746f207075726368617365207460008201527f7265650000000000000000000000000000000000000000000000000000000000602082015250565b7f4552433732313a207472616e736665722063616c6c6572206973206e6f74206f60008201527f776e6572206e6f7220617070726f766564000000000000000000000000000000602082015250565b61470281613fa4565b811461470d57600080fd5b50565b61471981613fb6565b811461472457600080fd5b50565b61473081613fc2565b811461473b57600080fd5b50565b61474781613fcc565b811461475257600080fd5b50565b61475e81613ff8565b811461476957600080fd5b50565b61477581614026565b811461478057600080fd5b50565b61478c81614030565b811461479757600080fd5b5056fea26469706673582212201ef6ca3e2a2d1cbfe7c246ecbcd42d7f8546fa5853a8af1aea57b4b9ecdcca1264736f6c63430008040033",
  "linkReferences": {},
  "deployedLinkReferences": {}
}